{
  "_format": "hh-sol-artifact-1",
  "contractName": "MyEpicNFT",
  "sourceName": "contracts/MyEpicNFT.sol",
  "abi": [
    {
      "inputs": [],
      "stateMutability": "nonpayable",
      "type": "constructor"
    },
    {
      "anonymous": false,
      "inputs": [
        {
          "indexed": true,
          "internalType": "address",
          "name": "owner",
          "type": "address"
        },
        {
          "indexed": true,
          "internalType": "address",
          "name": "approved",
          "type": "address"
        },
        {
          "indexed": true,
          "internalType": "uint256",
          "name": "tokenId",
          "type": "uint256"
        }
      ],
      "name": "Approval",
      "type": "event"
    },
    {
      "anonymous": false,
      "inputs": [
        {
          "indexed": true,
          "internalType": "address",
          "name": "owner",
          "type": "address"
        },
        {
          "indexed": true,
          "internalType": "address",
          "name": "operator",
          "type": "address"
        },
        {
          "indexed": false,
          "internalType": "bool",
          "name": "approved",
          "type": "bool"
        }
      ],
      "name": "ApprovalForAll",
      "type": "event"
    },
    {
      "anonymous": false,
      "inputs": [
        {
          "indexed": false,
          "internalType": "address",
          "name": "sender",
          "type": "address"
        },
        {
          "indexed": false,
          "internalType": "uint256",
          "name": "tokenId",
          "type": "uint256"
        }
      ],
      "name": "NewEpicNFTMinted",
      "type": "event"
    },
    {
      "anonymous": false,
      "inputs": [
        {
          "indexed": true,
          "internalType": "address",
          "name": "from",
          "type": "address"
        },
        {
          "indexed": true,
          "internalType": "address",
          "name": "to",
          "type": "address"
        },
        {
          "indexed": true,
          "internalType": "uint256",
          "name": "tokenId",
          "type": "uint256"
        }
      ],
      "name": "Transfer",
      "type": "event"
    },
    {
      "inputs": [
        {
          "internalType": "address",
          "name": "to",
          "type": "address"
        },
        {
          "internalType": "uint256",
          "name": "tokenId",
          "type": "uint256"
        }
      ],
      "name": "approve",
      "outputs": [],
      "stateMutability": "nonpayable",
      "type": "function"
    },
    {
      "inputs": [
        {
          "internalType": "address",
          "name": "owner",
          "type": "address"
        }
      ],
      "name": "balanceOf",
      "outputs": [
        {
          "internalType": "uint256",
          "name": "",
          "type": "uint256"
        }
      ],
      "stateMutability": "view",
      "type": "function"
    },
    {
      "inputs": [],
      "name": "concatRandomWords",
      "outputs": [
        {
          "internalType": "string",
          "name": "",
          "type": "string"
        },
        {
          "internalType": "uint256",
          "name": "",
          "type": "uint256"
        }
      ],
      "stateMutability": "view",
      "type": "function"
    },
    {
      "inputs": [
        {
          "internalType": "string",
          "name": "_randomWords",
          "type": "string"
        },
        {
          "internalType": "uint256",
          "name": "_colorNumber",
          "type": "uint256"
        }
      ],
      "name": "createImageString",
      "outputs": [
        {
          "internalType": "string",
          "name": "",
          "type": "string"
        }
      ],
      "stateMutability": "view",
      "type": "function"
    },
    {
      "inputs": [
        {
          "internalType": "uint256",
          "name": "tokenId",
          "type": "uint256"
        }
      ],
      "name": "getApproved",
      "outputs": [
        {
          "internalType": "address",
          "name": "",
          "type": "address"
        }
      ],
      "stateMutability": "view",
      "type": "function"
    },
    {
      "inputs": [],
      "name": "getTotalNFTsMintedSoFar",
      "outputs": [
        {
          "internalType": "uint256",
          "name": "",
          "type": "uint256"
        }
      ],
      "stateMutability": "view",
      "type": "function"
    },
    {
      "inputs": [
        {
          "internalType": "address",
          "name": "owner",
          "type": "address"
        },
        {
          "internalType": "address",
          "name": "operator",
          "type": "address"
        }
      ],
      "name": "isApprovedForAll",
      "outputs": [
        {
          "internalType": "bool",
          "name": "",
          "type": "bool"
        }
      ],
      "stateMutability": "view",
      "type": "function"
    },
    {
      "inputs": [],
      "name": "makeAnEpicNFT",
      "outputs": [],
      "stateMutability": "nonpayable",
      "type": "function"
    },
    {
      "inputs": [],
      "name": "name",
      "outputs": [
        {
          "internalType": "string",
          "name": "",
          "type": "string"
        }
      ],
      "stateMutability": "view",
      "type": "function"
    },
    {
      "inputs": [
        {
          "internalType": "uint256",
          "name": "tokenId",
          "type": "uint256"
        }
      ],
      "name": "ownerOf",
      "outputs": [
        {
          "internalType": "address",
          "name": "",
          "type": "address"
        }
      ],
      "stateMutability": "view",
      "type": "function"
    },
    {
      "inputs": [
        {
          "internalType": "string",
          "name": "_randomWords",
          "type": "string"
        },
        {
          "internalType": "string",
          "name": "_imageString",
          "type": "string"
        }
      ],
      "name": "prepareEncodedJSON",
      "outputs": [
        {
          "internalType": "string",
          "name": "",
          "type": "string"
        }
      ],
      "stateMutability": "pure",
      "type": "function"
    },
    {
      "inputs": [
        {
          "internalType": "address",
          "name": "from",
          "type": "address"
        },
        {
          "internalType": "address",
          "name": "to",
          "type": "address"
        },
        {
          "internalType": "uint256",
          "name": "tokenId",
          "type": "uint256"
        }
      ],
      "name": "safeTransferFrom",
      "outputs": [],
      "stateMutability": "nonpayable",
      "type": "function"
    },
    {
      "inputs": [
        {
          "internalType": "address",
          "name": "from",
          "type": "address"
        },
        {
          "internalType": "address",
          "name": "to",
          "type": "address"
        },
        {
          "internalType": "uint256",
          "name": "tokenId",
          "type": "uint256"
        },
        {
          "internalType": "bytes",
          "name": "data",
          "type": "bytes"
        }
      ],
      "name": "safeTransferFrom",
      "outputs": [],
      "stateMutability": "nonpayable",
      "type": "function"
    },
    {
      "inputs": [
        {
          "internalType": "address",
          "name": "operator",
          "type": "address"
        },
        {
          "internalType": "bool",
          "name": "approved",
          "type": "bool"
        }
      ],
      "name": "setApprovalForAll",
      "outputs": [],
      "stateMutability": "nonpayable",
      "type": "function"
    },
    {
      "inputs": [
        {
          "internalType": "bytes4",
          "name": "interfaceId",
          "type": "bytes4"
        }
      ],
      "name": "supportsInterface",
      "outputs": [
        {
          "internalType": "bool",
          "name": "",
          "type": "bool"
        }
      ],
      "stateMutability": "view",
      "type": "function"
    },
    {
      "inputs": [],
      "name": "symbol",
      "outputs": [
        {
          "internalType": "string",
          "name": "",
          "type": "string"
        }
      ],
      "stateMutability": "view",
      "type": "function"
    },
    {
      "inputs": [
        {
          "internalType": "uint256",
          "name": "tokenId",
          "type": "uint256"
        }
      ],
      "name": "tokenURI",
      "outputs": [
        {
          "internalType": "string",
          "name": "",
          "type": "string"
        }
      ],
      "stateMutability": "view",
      "type": "function"
    },
    {
      "inputs": [
        {
          "internalType": "address",
          "name": "from",
          "type": "address"
        },
        {
          "internalType": "address",
          "name": "to",
          "type": "address"
        },
        {
          "internalType": "uint256",
          "name": "tokenId",
          "type": "uint256"
        }
      ],
      "name": "transferFrom",
      "outputs": [],
      "stateMutability": "nonpayable",
      "type": "function"
    }
  ],
  "bytecode": "0x60806040526032600855604051806101e001604052806040518060400160405280600881526020017f4166666f7265737400000000000000000000000000000000000000000000000081525081526020016040518060400160405280600981526020017f41667465726d617468000000000000000000000000000000000000000000000081525081526020016040518060400160405280600681526020017f426563616c6d000000000000000000000000000000000000000000000000000081525081526020016040518060400160405280600a81526020017f426c69746865736f6d650000000000000000000000000000000000000000000081525081526020016040518060400160405280600a81526020017f42726f616473686565740000000000000000000000000000000000000000000081525081526020016040518060400160405280600a81526020017f427566666f6f6e6973680000000000000000000000000000000000000000000081525081526020016040518060400160405280600781526020017f436170726963650000000000000000000000000000000000000000000000000081525081526020016040518060400160405280600a81526020017f436170726963696f75730000000000000000000000000000000000000000000081525081526020016040518060400160405280600881526020017f436175736572696500000000000000000000000000000000000000000000000081525081526020016040518060400160405280600a81526020017f43686976616c726f75730000000000000000000000000000000000000000000081525081526020016040518060400160405280600e81526020017f436f6e67726174756c61746f727900000000000000000000000000000000000081525081526020016040518060400160405280600681526020017f446170706572000000000000000000000000000000000000000000000000000081525081526020016040518060400160405280600981526020017f4465626f6e61697265000000000000000000000000000000000000000000000081525081526020016040518060400160405280600e81526020017f446576696c2d4d61792d4361726500000000000000000000000000000000000081525081526020016040518060400160405280600881526020017f456d626c617a6f6e000000000000000000000000000000000000000000000000815250815250600990600f6200039a92919062000dfd565b506040518061022001604052806040518060400160405280600a81526020017f45756461656d6f6e69610000000000000000000000000000000000000000000081525081526020016040518060400160405280600881526020017f45787472656d756d00000000000000000000000000000000000000000000000081525081526020016040518060400160405280600881526020017f4578756c74616e7400000000000000000000000000000000000000000000000081525081526020016040518060400160405280600e81526020017f46656174686572627261696e656400000000000000000000000000000000000081525081526020016040518060400160405280600881526020017f46656c696369747900000000000000000000000000000000000000000000000081525081526020016040518060400160405280600d81526020017f466964646c652d466164646c650000000000000000000000000000000000000081525081526020016040518060400160405280600681526020017f476162626c65000000000000000000000000000000000000000000000000000081525081526020016040518060400160405280600781526020017f47616c6c616e740000000000000000000000000000000000000000000000000081525081526020016040518060400160405280600481526020017f47696c740000000000000000000000000000000000000000000000000000000081525081526020016040518060400160405280600781526020017f476c656566756c0000000000000000000000000000000000000000000000000081525081526020016040518060400160405280600781526020017f48616c63796f6e0000000000000000000000000000000000000000000000000081525081526020016040518060400160405280600e81526020017f48617070792d476f2d4c75636b7900000000000000000000000000000000000081525081526020016040518060400160405280600681526020017f486579646179000000000000000000000000000000000000000000000000000081525081526020016040518060400160405280600981526020017f486f74686561646564000000000000000000000000000000000000000000000081525081526020016040518060400160405280600381526020017f49736d000000000000000000000000000000000000000000000000000000000081525081526020016040518060400160405280600681526020017f4d6164636170000000000000000000000000000000000000000000000000000081525081526020016040518060400160405280600881526020017f4d616a6573746963000000000000000000000000000000000000000000000000815250815250600a906011620007a292919062000e5d565b506040518061028001604052806040518060400160405280600c81526020017f4d6572727920416e64726577000000000000000000000000000000000000000081525081526020016040518060400160405280600581526020017f4e6174747900000000000000000000000000000000000000000000000000000081525081526020016040518060400160405280600c81526020017f4e6f626c652d4d696e646564000000000000000000000000000000000000000081525081526020016040518060400160405280600681526020017f4e75616e6365000000000000000000000000000000000000000000000000000081525081526020016040518060400160405280600881526020017f5068616e7461737900000000000000000000000000000000000000000000000081525081526020016040518060400160405280600c81526020017f506f6c6c79616e6e61697368000000000000000000000000000000000000000081525081526020016040518060400160405280600581526020017f507261746500000000000000000000000000000000000000000000000000000081525081526020016040518060400160405280600581526020017f536170707900000000000000000000000000000000000000000000000000000081525081526020016040518060400160405280600681526020017f536e61707079000000000000000000000000000000000000000000000000000081525081526020016040518060400160405280600681526020017f537069666679000000000000000000000000000000000000000000000000000081525081526020016040518060400160405280600781526020017f5374756e6e65720000000000000000000000000000000000000000000000000081525081526020016040518060400160405280600a81526020017f54696d6265726c616e640000000000000000000000000000000000000000000081525081526020016040518060400160405280600681526020017f54696d627265000000000000000000000000000000000000000000000000000081525081526020016040518060400160405280600d81526020017f546974746c652d546174746c650000000000000000000000000000000000000081525081526020016040518060400160405280600781526020017f54776164646c650000000000000000000000000000000000000000000000000081525081526020016040518060400160405280600981526020017f56697669646e657373000000000000000000000000000000000000000000000081525081526020016040518060400160405280600981526020017f5765617269736f6d65000000000000000000000000000000000000000000000081525081526020016040518060400160405280600981526020017f5768696d736963616c000000000000000000000000000000000000000000000081525081526020016040518060400160405280600681526020017f5768696d7379000000000000000000000000000000000000000000000000000081525081526020016040518060400160405280600581526020017f5a69707079000000000000000000000000000000000000000000000000000000815250815250600b90601462000c5b92919062000ebd565b5034801562000c6957600080fd5b506040518060400160405280600981526020017f5371756172654e465400000000000000000000000000000000000000000000008152506040518060400160405280600681526020017f5351554152450000000000000000000000000000000000000000000000000000815250816000908162000ce7919062001224565b50806001908162000cf9919062001224565b50505062000d2b6040518060600160405280602b815260200162005144602b913962000d3160201b620010e01760201c565b620013be565b62000dd18160405160240162000d4891906200139a565b6040516020818303038152906040527f41304fac000000000000000000000000000000000000000000000000000000007bffffffffffffffffffffffffffffffffffffffffffffffffffffffff19166020820180517bffffffffffffffffffffffffffffffffffffffffffffffffffffffff838183161783525050505062000dd460201b60201c565b50565b60008151905060006a636f6e736f6c652e6c6f679050602083016000808483855afa5050505050565b82805482825590600052602060002090810192821562000e4a579160200282015b8281111562000e4957825182908162000e38919062001224565b509160200191906001019062000e1e565b5b50905062000e59919062000f1d565b5090565b82805482825590600052602060002090810192821562000eaa579160200282015b8281111562000ea957825182908162000e98919062001224565b509160200191906001019062000e7e565b5b50905062000eb9919062000f1d565b5090565b82805482825590600052602060002090810192821562000f0a579160200282015b8281111562000f0957825182908162000ef8919062001224565b509160200191906001019062000ede565b5b50905062000f19919062000f1d565b5090565b5b8082111562000f41576000818162000f37919062000f45565b5060010162000f1e565b5090565b50805462000f539062001013565b6000825580601f1062000f67575062000f88565b601f01602090049060005260206000209081019062000f87919062000f8b565b5b50565b5b8082111562000fa657600081600090555060010162000f8c565b5090565b600081519050919050565b7f4e487b7100000000000000000000000000000000000000000000000000000000600052604160045260246000fd5b7f4e487b7100000000000000000000000000000000000000000000000000000000600052602260045260246000fd5b600060028204905060018216806200102c57607f821691505b60208210810362001042576200104162000fe4565b5b50919050565b60008190508160005260206000209050919050565b60006020601f8301049050919050565b600082821b905092915050565b600060088302620010ac7fffffffffffffffffffffffffffffffffffffffffffffffffffffffffffffffff826200106d565b620010b886836200106d565b95508019841693508086168417925050509392505050565b6000819050919050565b6000819050919050565b600062001105620010ff620010f984620010d0565b620010da565b620010d0565b9050919050565b6000819050919050565b6200112183620010e4565b6200113962001130826200110c565b8484546200107a565b825550505050565b600090565b6200115062001141565b6200115d81848462001116565b505050565b5b8181101562001185576200117960008262001146565b60018101905062001163565b5050565b601f821115620011d4576200119e8162001048565b620011a9846200105d565b81016020851015620011b9578190505b620011d1620011c8856200105d565b83018262001162565b50505b505050565b600082821c905092915050565b6000620011f960001984600802620011d9565b1980831691505092915050565b6000620012148383620011e6565b9150826002028217905092915050565b6200122f8262000faa565b67ffffffffffffffff8111156200124b576200124a62000fb5565b5b62001257825462001013565b6200126482828562001189565b600060209050601f8311600181146200129c576000841562001287578287015190505b62001293858262001206565b86555062001303565b601f198416620012ac8662001048565b60005b82811015620012d657848901518255600182019150602085019450602081019050620012af565b86831015620012f65784890151620012f2601f891682620011e6565b8355505b6001600288020188555050505b505050505050565b600082825260208201905092915050565b60005b838110156200133c5780820151818401526020810190506200131f565b60008484015250505050565b6000601f19601f8301169050919050565b6000620013668262000faa565b6200137281856200130b565b9350620013848185602086016200131c565b6200138f8162001348565b840191505092915050565b60006020820190508181036000830152620013b6818462001359565b905092915050565b613d7680620013ce6000396000f3fe608060405234801561001057600080fd5b50600436106101165760003560e01c80636352211e116100a2578063a22cb46511610071578063a22cb46514610308578063b88d4fde14610324578063c87b56dd14610340578063de9d132f14610370578063e985e9c51461037a57610116565b80636352211e1461026b57806370a082311461029b5780637c5f313b146102cb57806395d89b41146102ea57610116565b8063095ea7b3116100e9578063095ea7b3146101b757806310279749146101d357806323b872dd146102035780633c0910831461021f57806342842e0e1461024f57610116565b806301ffc9a71461011b578063060475901461014b57806306fdde0314610169578063081812fc14610187575b600080fd5b61013560048036038101906101309190612339565b6103aa565b6040516101429190612381565b60405180910390f35b61015361048c565b60405161016091906123b5565b60405180910390f35b6101716104a2565b60405161017e9190612460565b60405180910390f35b6101a1600480360381019061019c91906124ae565b610534565b6040516101ae919061251c565b60405180910390f35b6101d160048036038101906101cc9190612563565b61057a565b005b6101ed60048036038101906101e891906126d8565b610691565b6040516101fa9190612460565b60405180910390f35b61021d60048036038101906102189190612750565b610715565b005b610239600480360381019061023491906127a3565b610775565b6040516102469190612460565b60405180910390f35b61026960048036038101906102649190612750565b610840565b005b610285600480360381019061028091906124ae565b610860565b604051610292919061251c565b60405180910390f35b6102b560048036038101906102b091906127ff565b610911565b6040516102c291906123b5565b60405180910390f35b6102d36109c8565b6040516102e192919061282c565b60405180910390f35b6102f2610d2b565b6040516102ff9190612460565b60405180910390f35b610322600480360381019061031d9190612888565b610dbd565b005b61033e60048036038101906103399190612969565b610dd3565b005b61035a600480360381019061035591906124ae565b610e35565b6040516103679190612460565b60405180910390f35b610378610f47565b005b610394600480360381019061038f91906129ec565b61104c565b6040516103a19190612381565b60405180910390f35b60007f80ac58cd000000000000000000000000000000000000000000000000000000007bffffffffffffffffffffffffffffffffffffffffffffffffffffffff1916827bffffffffffffffffffffffffffffffffffffffffffffffffffffffff1916148061047557507f5b5e139f000000000000000000000000000000000000000000000000000000007bffffffffffffffffffffffffffffffffffffffffffffffffffffffff1916827bffffffffffffffffffffffffffffffffffffffffffffffffffffffff1916145b80610485575061048482611179565b5b9050919050565b60008061049960076111e3565b90508091505090565b6060600080546104b190612a5b565b80601f01602080910402602001604051908101604052809291908181526020018280546104dd90612a5b565b801561052a5780601f106104ff5761010080835404028352916020019161052a565b820191906000526020600020905b81548152906001019060200180831161050d57829003601f168201915b5050505050905090565b600061053f826111f1565b6004600083815260200190815260200160002060009054906101000a900473ffffffffffffffffffffffffffffffffffffffff169050919050565b600061058582610860565b90508073ffffffffffffffffffffffffffffffffffffffff168373ffffffffffffffffffffffffffffffffffffffff16036105f5576040517f08c379a00000000000000000000000000000000000000000000000000000000081526004016105ec90612afe565b60405180910390fd5b8073ffffffffffffffffffffffffffffffffffffffff1661061461123c565b73ffffffffffffffffffffffffffffffffffffffff16148061064357506106428161063d61123c565b61104c565b5b610682576040517f08c379a000000000000000000000000000000000000000000000000000000000815260040161067990612b90565b60405180910390fd5b61068c8383611244565b505050565b6060600083836040516020016106a8929190612caa565b604051602081830303815290604052905060006106e3826040516020016106cf9190612cf7565b6040516020818303038152906040526112fd565b90506000816040516020016106f89190612d34565b604051602081830303815290604052905080935050505092915050565b61072661072061123c565b82611494565b610765576040517f08c379a000000000000000000000000000000000000000000000000000000000815260040161075c90612dcc565b60405180910390fd5b610770838383611529565b505050565b606060006107828361178f565b84604051602001610794929190612fda565b60405160208183030381529060405290506107e46040518060400160405280600781526020017f7376673a20257300000000000000000000000000000000000000000000000000815250826118ef565b600061080e826040516020016107fa9190612cf7565b6040516020818303038152906040526112fd565b90506000816040516020016108239190612d34565b604051602081830303815290604052905080935050505092915050565b61085b83838360405180602001604052806000815250610dd3565b505050565b6000806002600084815260200190815260200160002060009054906101000a900473ffffffffffffffffffffffffffffffffffffffff169050600073ffffffffffffffffffffffffffffffffffffffff168173ffffffffffffffffffffffffffffffffffffffff1603610908576040517f08c379a00000000000000000000000000000000000000000000000000000000081526004016108ff9061306f565b60405180910390fd5b80915050919050565b60008073ffffffffffffffffffffffffffffffffffffffff168273ffffffffffffffffffffffffffffffffffffffff1603610981576040517f08c379a000000000000000000000000000000000000000000000000000000000815260040161097890613101565b60405180910390fd5b600360008373ffffffffffffffffffffffffffffffffffffffff1673ffffffffffffffffffffffffffffffffffffffff168152602001908152602001600020549050919050565b6060600080600160098054905060096000815481106109ea576109e9613121565b5b90600052602060002001610a06610a0160076111e3565b61178f565b42604051602001610a1993929190613209565b6040516020818303038152906040528051906020012060001c610a3c919061326d565b610a4691906132cd565b905060006001600a80549050600a600081548110610a6757610a66613121565b5b90600052602060002001610a83610a7e60076111e3565b61178f565b42604051602001610a9693929190613209565b6040516020818303038152906040528051906020012060001c610ab9919061326d565b610ac391906132cd565b905060006001600b80549050600b600081548110610ae457610ae3613121565b5b90600052602060002001610b00610afb60076111e3565b61178f565b42604051602001610b1393929190613209565b6040516020818303038152906040528051906020012060001c610b36919061326d565b610b4091906132cd565b90506000620f42406009600081548110610b5d57610b5c613121565b5b90600052602060002001600a600081548110610b7c57610b7b613121565b5b90600052602060002001600b600081548110610b9b57610b9a613121565b5b9060005260206000200142604051602001610bb99493929190613301565b6040516020818303038152906040528051906020012060001c610bdc919061326d565b9050610c1f6040518060400160405280601681526020017f576f7264206e756d626572733a2025642025642025640000000000000000000081525085858561198b565b610c5e6040518060400160405280600e81526020017f436f6c6f72206e756d6265723a2000000000000000000000000000000000000081525082611a2d565b600060098581548110610c7457610c73613121565b5b90600052602060002001600a8581548110610c9257610c91613121565b5b90600052602060002001600b8581548110610cb057610caf613121565b5b90600052602060002001604051602001610ccc93929190613343565b6040516020818303038152906040529050610d1c6040518060400160405280601a81526020017f436f6e636174656e6174656420737472696e672069733a202573000000000000815250826118ef565b80829650965050505050509091565b606060018054610d3a90612a5b565b80601f0160208091040260200160405190810160405280929190818152602001828054610d6690612a5b565b8015610db35780601f10610d8857610100808354040283529160200191610db3565b820191906000526020600020905b815481529060010190602001808311610d9657829003601f168201915b5050505050905090565b610dcf610dc861123c565b8383611ac9565b5050565b610de4610dde61123c565b83611494565b610e23576040517f08c379a0000000000000000000000000000000000000000000000000000000008152600401610e1a90612dcc565b60405180910390fd5b610e2f84848484611c35565b50505050565b6060610e40826111f1565b6000600660008481526020019081526020016000208054610e6090612a5b565b80601f0160208091040260200160405190810160405280929190818152602001828054610e8c90612a5b565b8015610ed95780601f10610eae57610100808354040283529160200191610ed9565b820191906000526020600020905b815481529060010190602001808311610ebc57829003601f168201915b505050505090506000610eea611c91565b90506000815103610eff578192505050610f42565b600082511115610f34578082604051602001610f1c929190613374565b60405160208183030381529060405292505050610f42565b610f3d84611ca8565b925050505b919050565b600854610f5261048c565b10610f92576040517f08c379a0000000000000000000000000000000000000000000000000000000008152600401610f899061340a565b60405180910390fd5b6000610f9e60076111e3565b9050600080610fab6109c8565b915091506000610fbb8383610775565b90506000610fc98483610691565b9050610fd53386611d10565b610fdf8582611d2e565b611002604051806060016040528060258152602001613cdc602591398633611d9b565b61100c6007611e3a565b7febb98688741ffa4c7589bf325de30cf7becb63de567842e1ccdb6cb949fdc82c338660405161103d92919061342a565b60405180910390a15050505050565b6000600560008473ffffffffffffffffffffffffffffffffffffffff1673ffffffffffffffffffffffffffffffffffffffff16815260200190815260200160002060008373ffffffffffffffffffffffffffffffffffffffff1673ffffffffffffffffffffffffffffffffffffffff16815260200190815260200160002060009054906101000a900460ff16905092915050565b611176816040516024016110f49190612460565b6040516020818303038152906040527f41304fac000000000000000000000000000000000000000000000000000000007bffffffffffffffffffffffffffffffffffffffffffffffffffffffff19166020820180517bffffffffffffffffffffffffffffffffffffffffffffffffffffffff8381831617835250505050611e50565b50565b60007f01ffc9a7000000000000000000000000000000000000000000000000000000007bffffffffffffffffffffffffffffffffffffffffffffffffffffffff1916827bffffffffffffffffffffffffffffffffffffffffffffffffffffffff1916149050919050565b600081600001549050919050565b6111fa81611e79565b611239576040517f08c379a00000000000000000000000000000000000000000000000000000000081526004016112309061306f565b60405180910390fd5b50565b600033905090565b816004600083815260200190815260200160002060006101000a81548173ffffffffffffffffffffffffffffffffffffffff021916908373ffffffffffffffffffffffffffffffffffffffff160217905550808273ffffffffffffffffffffffffffffffffffffffff166112b783610860565b73ffffffffffffffffffffffffffffffffffffffff167f8c5be1e5ebec7d5bd14f71427d1e84f3dd0314c0f7b2291e5b200ac8c7c3b92560405160405180910390a45050565b606060008251905060008103611325576040518060200160405280600081525091505061148f565b600060036002836113369190613453565b6113409190613487565b600461134c91906134b8565b9050600060208261135d9190613453565b67ffffffffffffffff811115611376576113756125ad565b5b6040519080825280601f01601f1916602001820160405280156113a85781602001600182028036833780820191505090505b5090506000604051806060016040528060408152602001613d01604091399050600181016020830160005b8681101561144c5760038101905062ffffff818a015116603f8160121c168401518060081b905060ff603f83600c1c1686015116810190508060081b905060ff603f8360061c1686015116810190508060081b905060ff603f831686015116810190508060e01b905080845260048401935050506113d3565b506003860660018114611466576002811461147657611481565b613d3d60f01b6002830352611481565b603d60f81b60018303525b508484525050819450505050505b919050565b6000806114a083610860565b90508073ffffffffffffffffffffffffffffffffffffffff168473ffffffffffffffffffffffffffffffffffffffff1614806114e257506114e1818561104c565b5b8061152057508373ffffffffffffffffffffffffffffffffffffffff1661150884610534565b73ffffffffffffffffffffffffffffffffffffffff16145b91505092915050565b8273ffffffffffffffffffffffffffffffffffffffff1661154982610860565b73ffffffffffffffffffffffffffffffffffffffff161461159f576040517f08c379a00000000000000000000000000000000000000000000000000000000081526004016115969061356c565b60405180910390fd5b600073ffffffffffffffffffffffffffffffffffffffff168273ffffffffffffffffffffffffffffffffffffffff160361160e576040517f08c379a0000000000000000000000000000000000000000000000000000000008152600401611605906135fe565b60405180910390fd5b611619838383611ee5565b611624600082611244565b6001600360008573ffffffffffffffffffffffffffffffffffffffff1673ffffffffffffffffffffffffffffffffffffffff168152602001908152602001600020600082825461167491906132cd565b925050819055506001600360008473ffffffffffffffffffffffffffffffffffffffff1673ffffffffffffffffffffffffffffffffffffffff16815260200190815260200160002060008282546116cb9190613453565b92505081905550816002600083815260200190815260200160002060006101000a81548173ffffffffffffffffffffffffffffffffffffffff021916908373ffffffffffffffffffffffffffffffffffffffff160217905550808273ffffffffffffffffffffffffffffffffffffffff168473ffffffffffffffffffffffffffffffffffffffff167fddf252ad1be2c89b69c2b068fc378daa952ba7f163c4a11628f55a4df523b3ef60405160405180910390a461178a838383611eea565b505050565b6060600082036117d6576040518060400160405280600181526020017f300000000000000000000000000000000000000000000000000000000000000081525090506118ea565b600082905060005b600082146118085780806117f19061361e565b915050600a826118019190613487565b91506117de565b60008167ffffffffffffffff811115611824576118236125ad565b5b6040519080825280601f01601f1916602001820160405280156118565781602001600182028036833780820191505090505b5090505b600085146118e35760018261186f91906132cd565b9150600a8561187e919061326d565b603061188a9190613453565b60f81b8183815181106118a05761189f613121565b5b60200101907effffffffffffffffffffffffffffffffffffffffffffffffffffffffffffff1916908160001a905350600a856118dc9190613487565b945061185a565b8093505050505b919050565b6119878282604051602401611905929190613666565b6040516020818303038152906040527f4b5c4277000000000000000000000000000000000000000000000000000000007bffffffffffffffffffffffffffffffffffffffffffffffffffffffff19166020820180517bffffffffffffffffffffffffffffffffffffffffffffffffffffffff8381831617835250505050611e50565b5050565b611a27848484846040516024016119a5949392919061369d565b6040516020818303038152906040527fa7a87853000000000000000000000000000000000000000000000000000000007bffffffffffffffffffffffffffffffffffffffffffffffffffffffff19166020820180517bffffffffffffffffffffffffffffffffffffffffffffffffffffffff8381831617835250505050611e50565b50505050565b611ac58282604051602401611a4392919061282c565b6040516020818303038152906040527fb60e72cc000000000000000000000000000000000000000000000000000000007bffffffffffffffffffffffffffffffffffffffffffffffffffffffff19166020820180517bffffffffffffffffffffffffffffffffffffffffffffffffffffffff8381831617835250505050611e50565b5050565b8173ffffffffffffffffffffffffffffffffffffffff168373ffffffffffffffffffffffffffffffffffffffff1603611b37576040517f08c379a0000000000000000000000000000000000000000000000000000000008152600401611b2e90613735565b60405180910390fd5b80600560008573ffffffffffffffffffffffffffffffffffffffff1673ffffffffffffffffffffffffffffffffffffffff16815260200190815260200160002060008473ffffffffffffffffffffffffffffffffffffffff1673ffffffffffffffffffffffffffffffffffffffff16815260200190815260200160002060006101000a81548160ff0219169083151502179055508173ffffffffffffffffffffffffffffffffffffffff168373ffffffffffffffffffffffffffffffffffffffff167f17307eab39ab6107e8899845ad3d59bd9653f200f220920489ca2b5937696c3183604051611c289190612381565b60405180910390a3505050565b611c40848484611529565b611c4c84848484611eef565b611c8b576040517f08c379a0000000000000000000000000000000000000000000000000000000008152600401611c82906137c7565b60405180910390fd5b50505050565b606060405180602001604052806000815250905090565b6060611cb3826111f1565b6000611cbd611c91565b90506000815111611cdd5760405180602001604052806000815250611d08565b80611ce78461178f565b604051602001611cf8929190613374565b6040516020818303038152906040525b915050919050565b611d2a828260405180602001604052806000815250612076565b5050565b611d3782611e79565b611d76576040517f08c379a0000000000000000000000000000000000000000000000000000000008152600401611d6d90613859565b60405180910390fd5b80600660008481526020019081526020016000209081611d969190613a10565b505050565b611e35838383604051602401611db393929190613ae2565b6040516020818303038152906040527f1c7ec448000000000000000000000000000000000000000000000000000000007bffffffffffffffffffffffffffffffffffffffffffffffffffffffff19166020820180517bffffffffffffffffffffffffffffffffffffffffffffffffffffffff8381831617835250505050611e50565b505050565b6001816000016000828254019250508190555050565b60008151905060006a636f6e736f6c652e6c6f679050602083016000808483855afa5050505050565b60008073ffffffffffffffffffffffffffffffffffffffff166002600084815260200190815260200160002060009054906101000a900473ffffffffffffffffffffffffffffffffffffffff1673ffffffffffffffffffffffffffffffffffffffff1614159050919050565b505050565b505050565b6000611f108473ffffffffffffffffffffffffffffffffffffffff166120d1565b15612069578373ffffffffffffffffffffffffffffffffffffffff1663150b7a02611f3961123c565b8786866040518563ffffffff1660e01b8152600401611f5b9493929190613b75565b6020604051808303816000875af1925050508015611f9757506040513d601f19601f82011682018060405250810190611f949190613bd6565b60015b612019573d8060008114611fc7576040519150601f19603f3d011682016040523d82523d6000602084013e611fcc565b606091505b506000815103612011576040517f08c379a0000000000000000000000000000000000000000000000000000000008152600401612008906137c7565b60405180910390fd5b805181602001fd5b63150b7a0260e01b7bffffffffffffffffffffffffffffffffffffffffffffffffffffffff1916817bffffffffffffffffffffffffffffffffffffffffffffffffffffffff19161491505061206e565b600190505b949350505050565b61208083836120f4565b61208d6000848484611eef565b6120cc576040517f08c379a00000000000000000000000000000000000000000000000000000000081526004016120c3906137c7565b60405180910390fd5b505050565b6000808273ffffffffffffffffffffffffffffffffffffffff163b119050919050565b600073ffffffffffffffffffffffffffffffffffffffff168273ffffffffffffffffffffffffffffffffffffffff1603612163576040517f08c379a000000000000000000000000000000000000000000000000000000000815260040161215a90613c4f565b60405180910390fd5b61216c81611e79565b156121ac576040517f08c379a00000000000000000000000000000000000000000000000000000000081526004016121a390613cbb565b60405180910390fd5b6121b860008383611ee5565b6001600360008473ffffffffffffffffffffffffffffffffffffffff1673ffffffffffffffffffffffffffffffffffffffff16815260200190815260200160002060008282546122089190613453565b92505081905550816002600083815260200190815260200160002060006101000a81548173ffffffffffffffffffffffffffffffffffffffff021916908373ffffffffffffffffffffffffffffffffffffffff160217905550808273ffffffffffffffffffffffffffffffffffffffff16600073ffffffffffffffffffffffffffffffffffffffff167fddf252ad1be2c89b69c2b068fc378daa952ba7f163c4a11628f55a4df523b3ef60405160405180910390a46122c960008383611eea565b5050565b6000604051905090565b600080fd5b600080fd5b60007fffffffff0000000000000000000000000000000000000000000000000000000082169050919050565b612316816122e1565b811461232157600080fd5b50565b6000813590506123338161230d565b92915050565b60006020828403121561234f5761234e6122d7565b5b600061235d84828501612324565b91505092915050565b60008115159050919050565b61237b81612366565b82525050565b60006020820190506123966000830184612372565b92915050565b6000819050919050565b6123af8161239c565b82525050565b60006020820190506123ca60008301846123a6565b92915050565b600081519050919050565b600082825260208201905092915050565b60005b8381101561240a5780820151818401526020810190506123ef565b60008484015250505050565b6000601f19601f8301169050919050565b6000612432826123d0565b61243c81856123db565b935061244c8185602086016123ec565b61245581612416565b840191505092915050565b6000602082019050818103600083015261247a8184612427565b905092915050565b61248b8161239c565b811461249657600080fd5b50565b6000813590506124a881612482565b92915050565b6000602082840312156124c4576124c36122d7565b5b60006124d284828501612499565b91505092915050565b600073ffffffffffffffffffffffffffffffffffffffff82169050919050565b6000612506826124db565b9050919050565b612516816124fb565b82525050565b6000602082019050612531600083018461250d565b92915050565b612540816124fb565b811461254b57600080fd5b50565b60008135905061255d81612537565b92915050565b6000806040838503121561257a576125796122d7565b5b60006125888582860161254e565b925050602061259985828601612499565b9150509250929050565b600080fd5b600080fd5b7f4e487b7100000000000000000000000000000000000000000000000000000000600052604160045260246000fd5b6125e582612416565b810181811067ffffffffffffffff82111715612604576126036125ad565b5b80604052505050565b60006126176122cd565b905061262382826125dc565b919050565b600067ffffffffffffffff821115612643576126426125ad565b5b61264c82612416565b9050602081019050919050565b82818337600083830152505050565b600061267b61267684612628565b61260d565b905082815260208101848484011115612697576126966125a8565b5b6126a2848285612659565b509392505050565b600082601f8301126126bf576126be6125a3565b5b81356126cf848260208601612668565b91505092915050565b600080604083850312156126ef576126ee6122d7565b5b600083013567ffffffffffffffff81111561270d5761270c6122dc565b5b612719858286016126aa565b925050602083013567ffffffffffffffff81111561273a576127396122dc565b5b612746858286016126aa565b9150509250929050565b600080600060608486031215612769576127686122d7565b5b60006127778682870161254e565b93505060206127888682870161254e565b925050604061279986828701612499565b9150509250925092565b600080604083850312156127ba576127b96122d7565b5b600083013567ffffffffffffffff8111156127d8576127d76122dc565b5b6127e4858286016126aa565b92505060206127f585828601612499565b9150509250929050565b600060208284031215612815576128146122d7565b5b60006128238482850161254e565b91505092915050565b600060408201905081810360008301526128468185612427565b905061285560208301846123a6565b9392505050565b61286581612366565b811461287057600080fd5b50565b6000813590506128828161285c565b92915050565b6000806040838503121561289f5761289e6122d7565b5b60006128ad8582860161254e565b92505060206128be85828601612873565b9150509250929050565b600067ffffffffffffffff8211156128e3576128e26125ad565b5b6128ec82612416565b9050602081019050919050565b600061290c612907846128c8565b61260d565b905082815260208101848484011115612928576129276125a8565b5b612933848285612659565b509392505050565b600082601f8301126129505761294f6125a3565b5b81356129608482602086016128f9565b91505092915050565b60008060008060808587031215612983576129826122d7565b5b60006129918782880161254e565b94505060206129a28782880161254e565b93505060406129b387828801612499565b925050606085013567ffffffffffffffff8111156129d4576129d36122dc565b5b6129e08782880161293b565b91505092959194509250565b60008060408385031215612a0357612a026122d7565b5b6000612a118582860161254e565b9250506020612a228582860161254e565b9150509250929050565b7f4e487b7100000000000000000000000000000000000000000000000000000000600052602260045260246000fd5b60006002820490506001821680612a7357607f821691505b602082108103612a8657612a85612a2c565b5b50919050565b7f4552433732313a20617070726f76616c20746f2063757272656e74206f776e6560008201527f7200000000000000000000000000000000000000000000000000000000000000602082015250565b6000612ae86021836123db565b9150612af382612a8c565b604082019050919050565b60006020820190508181036000830152612b1781612adb565b9050919050565b7f4552433732313a20617070726f76652063616c6c6572206973206e6f7420746f60008201527f6b656e206f776e6572206e6f7220617070726f76656420666f7220616c6c0000602082015250565b6000612b7a603e836123db565b9150612b8582612b1e565b604082019050919050565b60006020820190508181036000830152612ba981612b6d565b9050919050565b7f7b226e616d65223a202200000000000000000000000000000000000000000000815250565b600081905092915050565b6000612bec826123d0565b612bf68185612bd6565b9350612c068185602086016123ec565b80840191505092915050565b7f222c20226465736372697074696f6e22203a202246756e6e7920636f6c6c656360008201527f74696f6e206f6620737175617265732e222c2022696d61676522203a20220000602082015250565b6000612c6e603e83612bd6565b9150612c7982612c12565b603e82019050919050565b7f227d000000000000000000000000000000000000000000000000000000000000815250565b6000612cb582612bb0565b600a82019150612cc58285612be1565b9150612cd082612c61565b9150612cdc8284612be1565b9150612ce782612c84565b6002820191508190509392505050565b6000612d038284612be1565b915081905092915050565b7f646174613a6170706c69636174696f6e2f6a736f6e3b6261736536342c000000815250565b6000612d3f82612d0e565b601d82019150612d4f8284612be1565b915081905092915050565b7f4552433732313a2063616c6c6572206973206e6f7420746f6b656e206f776e6560008201527f72206e6f7220617070726f766564000000000000000000000000000000000000602082015250565b6000612db6602e836123db565b9150612dc182612d5a565b604082019050919050565b60006020820190508181036000830152612de581612da9565b9050919050565b7f3c73766720786d6c6e733d27687474703a2f2f7777772e77332e6f72672f323060008201527f30302f73766727207072657365727665417370656374526174696f3d27784d6960208201527f6e594d696e206d656574272076696577426f783d27302030203335302033353060408201527f273e3c7374796c653e2e62617365207b2066696c6c3a2077686974653b20666f60608201527f6e742d66616d696c793a2073657269663b20666f6e742d73697a653a2032347060808201527f783b207d3c2f7374796c653e3c726563742077696474683d273130302527206860a08201527f65696768743d2731303025272066696c6c3d272300000000000000000000000060c082015250565b6000612f0660d483612bd6565b9150612f1182612dec565b60d482019050919050565b7f27202f3e3c7465787420783d273530252720793d273530252720636c6173733d60008201527f27626173652720646f6d696e616e742d626173656c696e653d276d6964646c6560208201527f2720746578742d616e63686f723d276d6964646c65273e000000000000000000604082015250565b6000612f9e605783612bd6565b9150612fa982612f1c565b605782019050919050565b7f3c2f746578743e3c2f7376673e00000000000000000000000000000000000000815250565b6000612fe582612ef9565b9150612ff18285612be1565b9150612ffc82612f91565b91506130088284612be1565b915061301382612fb4565b600d820191508190509392505050565b7f4552433732313a20696e76616c696420746f6b656e2049440000000000000000600082015250565b60006130596018836123db565b915061306482613023565b602082019050919050565b600060208201905081810360008301526130888161304c565b9050919050565b7f4552433732313a2061646472657373207a65726f206973206e6f74206120766160008201527f6c6964206f776e65720000000000000000000000000000000000000000000000602082015250565b60006130eb6029836123db565b91506130f68261308f565b604082019050919050565b6000602082019050818103600083015261311a816130de565b9050919050565b7f4e487b7100000000000000000000000000000000000000000000000000000000600052603260045260246000fd5b60008190508160005260206000209050919050565b6000815461317281612a5b565b61317c8186612bd6565b9450600182166000811461319757600181146131ac576131df565b60ff19831686528115158202860193506131df565b6131b585613150565b60005b838110156131d7578154818901526001820191506020810190506131b8565b838801955050505b50505092915050565b6000819050919050565b6132036131fe8261239c565b6131e8565b82525050565b60006132158286613165565b91506132218285612be1565b915061322d82846131f2565b602082019150819050949350505050565b7f4e487b7100000000000000000000000000000000000000000000000000000000600052601260045260246000fd5b60006132788261239c565b91506132838361239c565b9250826132935761329261323e565b5b828206905092915050565b7f4e487b7100000000000000000000000000000000000000000000000000000000600052601160045260246000fd5b60006132d88261239c565b91506132e38361239c565b92508282039050818111156132fb576132fa61329e565b5b92915050565b600061330d8287613165565b91506133198286613165565b91506133258285613165565b915061333182846131f2565b60208201915081905095945050505050565b600061334f8286613165565b915061335b8285613165565b91506133678284613165565b9150819050949350505050565b60006133808285612be1565b915061338c8284612be1565b91508190509392505050565b7f4a757374203530204e4654732063616e206265206d696e746564206f6e20746860008201527f697320636f6e7472616374000000000000000000000000000000000000000000602082015250565b60006133f4602b836123db565b91506133ff82613398565b604082019050919050565b60006020820190508181036000830152613423816133e7565b9050919050565b600060408201905061343f600083018561250d565b61344c60208301846123a6565b9392505050565b600061345e8261239c565b91506134698361239c565b92508282019050808211156134815761348061329e565b5b92915050565b60006134928261239c565b915061349d8361239c565b9250826134ad576134ac61323e565b5b828204905092915050565b60006134c38261239c565b91506134ce8361239c565b92508282026134dc8161239c565b915082820484148315176134f3576134f261329e565b5b5092915050565b7f4552433732313a207472616e736665722066726f6d20696e636f72726563742060008201527f6f776e6572000000000000000000000000000000000000000000000000000000602082015250565b60006135566025836123db565b9150613561826134fa565b604082019050919050565b6000602082019050818103600083015261358581613549565b9050919050565b7f4552433732313a207472616e7366657220746f20746865207a65726f2061646460008201527f7265737300000000000000000000000000000000000000000000000000000000602082015250565b60006135e86024836123db565b91506135f38261358c565b604082019050919050565b60006020820190508181036000830152613617816135db565b9050919050565b60006136298261239c565b91507fffffffffffffffffffffffffffffffffffffffffffffffffffffffffffffffff820361365b5761365a61329e565b5b600182019050919050565b600060408201905081810360008301526136808185612427565b905081810360208301526136948184612427565b90509392505050565b600060808201905081810360008301526136b78187612427565b90506136c660208301866123a6565b6136d360408301856123a6565b6136e060608301846123a6565b95945050505050565b7f4552433732313a20617070726f766520746f2063616c6c657200000000000000600082015250565b600061371f6019836123db565b915061372a826136e9565b602082019050919050565b6000602082019050818103600083015261374e81613712565b9050919050565b7f4552433732313a207472616e7366657220746f206e6f6e20455243373231526560008201527f63656976657220696d706c656d656e7465720000000000000000000000000000602082015250565b60006137b16032836123db565b91506137bc82613755565b604082019050919050565b600060208201905081810360008301526137e0816137a4565b9050919050565b7f45524337323155524953746f726167653a2055524920736574206f66206e6f6e60008201527f6578697374656e7420746f6b656e000000000000000000000000000000000000602082015250565b6000613843602e836123db565b915061384e826137e7565b604082019050919050565b6000602082019050818103600083015261387281613836565b9050919050565b60006020601f8301049050919050565b600082821b905092915050565b6000600883026138c67fffffffffffffffffffffffffffffffffffffffffffffffffffffffffffffffff82613889565b6138d08683613889565b95508019841693508086168417925050509392505050565b6000819050919050565b600061390d6139086139038461239c565b6138e8565b61239c565b9050919050565b6000819050919050565b613927836138f2565b61393b61393382613914565b848454613896565b825550505050565b600090565b613950613943565b61395b81848461391e565b505050565b5b8181101561397f57613974600082613948565b600181019050613961565b5050565b601f8211156139c45761399581613150565b61399e84613879565b810160208510156139ad578190505b6139c16139b985613879565b830182613960565b50505b505050565b600082821c905092915050565b60006139e7600019846008026139c9565b1980831691505092915050565b6000613a0083836139d6565b9150826002028217905092915050565b613a19826123d0565b67ffffffffffffffff811115613a3257613a316125ad565b5b613a3c8254612a5b565b613a47828285613983565b600060209050601f831160018114613a7a5760008415613a68578287015190505b613a7285826139f4565b865550613ada565b601f198416613a8886613150565b60005b82811015613ab057848901518255600182019150602085019450602081019050613a8b565b86831015613acd5784890151613ac9601f8916826139d6565b8355505b6001600288020188555050505b505050505050565b60006060820190508181036000830152613afc8186612427565b9050613b0b60208301856123a6565b613b18604083018461250d565b949350505050565b600081519050919050565b600082825260208201905092915050565b6000613b4782613b20565b613b518185613b2b565b9350613b618185602086016123ec565b613b6a81612416565b840191505092915050565b6000608082019050613b8a600083018761250d565b613b97602083018661250d565b613ba460408301856123a6565b8181036060830152613bb68184613b3c565b905095945050505050565b600081519050613bd08161230d565b92915050565b600060208284031215613bec57613beb6122d7565b5b6000613bfa84828501613bc1565b91505092915050565b7f4552433732313a206d696e7420746f20746865207a65726f2061646472657373600082015250565b6000613c396020836123db565b9150613c4482613c03565b602082019050919050565b60006020820190508181036000830152613c6881613c2c565b9050919050565b7f4552433732313a20746f6b656e20616c7265616479206d696e74656400000000600082015250565b6000613ca5601c836123db565b9150613cb082613c6f565b602082019050919050565b60006020820190508181036000830152613cd481613c98565b905091905056fe416e204e465420772f20494420257320686173206265656e206d696e74656420746f2025734142434445464748494a4b4c4d4e4f505152535455565758595a6162636465666768696a6b6c6d6e6f707172737475767778797a303132333435363738392b2fa264697066735822122067d1d8c58c457666c37e98a8eecd4d3154b80a9535312f86fb88ceea61ec46e264736f6c6343000811003349276d206578636974656420746f20676574206d79204e465420636f6e747261637420776f726b696e6721",
  "linkReferences": {},
  "deployedLinkReferences": {}
}