{
  "_format": "hh-sol-artifact-1",
  "contractName": "MyEpicNFT",
  "sourceName": "contracts/MyEpicNFT.sol",
  "abi": [
    {
      "inputs": [],
      "stateMutability": "nonpayable",
      "type": "constructor"
    },
    {
      "anonymous": false,
      "inputs": [
        {
          "indexed": true,
          "internalType": "address",
          "name": "owner",
          "type": "address"
        },
        {
          "indexed": true,
          "internalType": "address",
          "name": "approved",
          "type": "address"
        },
        {
          "indexed": true,
          "internalType": "uint256",
          "name": "tokenId",
          "type": "uint256"
        }
      ],
      "name": "Approval",
      "type": "event"
    },
    {
      "anonymous": false,
      "inputs": [
        {
          "indexed": true,
          "internalType": "address",
          "name": "owner",
          "type": "address"
        },
        {
          "indexed": true,
          "internalType": "address",
          "name": "operator",
          "type": "address"
        },
        {
          "indexed": false,
          "internalType": "bool",
          "name": "approved",
          "type": "bool"
        }
      ],
      "name": "ApprovalForAll",
      "type": "event"
    },
    {
      "anonymous": false,
      "inputs": [
        {
          "indexed": false,
          "internalType": "address",
          "name": "sender",
          "type": "address"
        },
        {
          "indexed": false,
          "internalType": "uint256",
          "name": "tokenId",
          "type": "uint256"
        }
      ],
      "name": "NewEpicNFTMinted",
      "type": "event"
    },
    {
      "anonymous": false,
      "inputs": [
        {
          "indexed": true,
          "internalType": "address",
          "name": "from",
          "type": "address"
        },
        {
          "indexed": true,
          "internalType": "address",
          "name": "to",
          "type": "address"
        },
        {
          "indexed": true,
          "internalType": "uint256",
          "name": "tokenId",
          "type": "uint256"
        }
      ],
      "name": "Transfer",
      "type": "event"
    },
    {
      "inputs": [
        {
          "internalType": "address",
          "name": "to",
          "type": "address"
        },
        {
          "internalType": "uint256",
          "name": "tokenId",
          "type": "uint256"
        }
      ],
      "name": "approve",
      "outputs": [],
      "stateMutability": "nonpayable",
      "type": "function"
    },
    {
      "inputs": [
        {
          "internalType": "address",
          "name": "owner",
          "type": "address"
        }
      ],
      "name": "balanceOf",
      "outputs": [
        {
          "internalType": "uint256",
          "name": "",
          "type": "uint256"
        }
      ],
      "stateMutability": "view",
      "type": "function"
    },
    {
      "inputs": [],
      "name": "concatRandomWords",
      "outputs": [
        {
          "internalType": "string",
          "name": "",
          "type": "string"
        }
      ],
      "stateMutability": "view",
      "type": "function"
    },
    {
      "inputs": [
        {
          "internalType": "string",
          "name": "_randomWords",
          "type": "string"
        }
      ],
      "name": "createImageString",
      "outputs": [
        {
          "internalType": "string",
          "name": "",
          "type": "string"
        }
      ],
      "stateMutability": "pure",
      "type": "function"
    },
    {
      "inputs": [
        {
          "internalType": "uint256",
          "name": "tokenId",
          "type": "uint256"
        }
      ],
      "name": "getApproved",
      "outputs": [
        {
          "internalType": "address",
          "name": "",
          "type": "address"
        }
      ],
      "stateMutability": "view",
      "type": "function"
    },
    {
      "inputs": [
        {
          "internalType": "address",
          "name": "owner",
          "type": "address"
        },
        {
          "internalType": "address",
          "name": "operator",
          "type": "address"
        }
      ],
      "name": "isApprovedForAll",
      "outputs": [
        {
          "internalType": "bool",
          "name": "",
          "type": "bool"
        }
      ],
      "stateMutability": "view",
      "type": "function"
    },
    {
      "inputs": [],
      "name": "makeAnEpicNFT",
      "outputs": [],
      "stateMutability": "nonpayable",
      "type": "function"
    },
    {
      "inputs": [],
      "name": "name",
      "outputs": [
        {
          "internalType": "string",
          "name": "",
          "type": "string"
        }
      ],
      "stateMutability": "view",
      "type": "function"
    },
    {
      "inputs": [
        {
          "internalType": "uint256",
          "name": "tokenId",
          "type": "uint256"
        }
      ],
      "name": "ownerOf",
      "outputs": [
        {
          "internalType": "address",
          "name": "",
          "type": "address"
        }
      ],
      "stateMutability": "view",
      "type": "function"
    },
    {
      "inputs": [
        {
          "internalType": "string",
          "name": "_randomWords",
          "type": "string"
        },
        {
          "internalType": "string",
          "name": "_imageString",
          "type": "string"
        }
      ],
      "name": "prepareEncodedJSON",
      "outputs": [
        {
          "internalType": "string",
          "name": "",
          "type": "string"
        }
      ],
      "stateMutability": "pure",
      "type": "function"
    },
    {
      "inputs": [
        {
          "internalType": "address",
          "name": "from",
          "type": "address"
        },
        {
          "internalType": "address",
          "name": "to",
          "type": "address"
        },
        {
          "internalType": "uint256",
          "name": "tokenId",
          "type": "uint256"
        }
      ],
      "name": "safeTransferFrom",
      "outputs": [],
      "stateMutability": "nonpayable",
      "type": "function"
    },
    {
      "inputs": [
        {
          "internalType": "address",
          "name": "from",
          "type": "address"
        },
        {
          "internalType": "address",
          "name": "to",
          "type": "address"
        },
        {
          "internalType": "uint256",
          "name": "tokenId",
          "type": "uint256"
        },
        {
          "internalType": "bytes",
          "name": "data",
          "type": "bytes"
        }
      ],
      "name": "safeTransferFrom",
      "outputs": [],
      "stateMutability": "nonpayable",
      "type": "function"
    },
    {
      "inputs": [
        {
          "internalType": "address",
          "name": "operator",
          "type": "address"
        },
        {
          "internalType": "bool",
          "name": "approved",
          "type": "bool"
        }
      ],
      "name": "setApprovalForAll",
      "outputs": [],
      "stateMutability": "nonpayable",
      "type": "function"
    },
    {
      "inputs": [
        {
          "internalType": "bytes4",
          "name": "interfaceId",
          "type": "bytes4"
        }
      ],
      "name": "supportsInterface",
      "outputs": [
        {
          "internalType": "bool",
          "name": "",
          "type": "bool"
        }
      ],
      "stateMutability": "view",
      "type": "function"
    },
    {
      "inputs": [],
      "name": "symbol",
      "outputs": [
        {
          "internalType": "string",
          "name": "",
          "type": "string"
        }
      ],
      "stateMutability": "view",
      "type": "function"
    },
    {
      "inputs": [
        {
          "internalType": "uint256",
          "name": "tokenId",
          "type": "uint256"
        }
      ],
      "name": "tokenURI",
      "outputs": [
        {
          "internalType": "string",
          "name": "",
          "type": "string"
        }
      ],
      "stateMutability": "view",
      "type": "function"
    },
    {
      "inputs": [
        {
          "internalType": "address",
          "name": "from",
          "type": "address"
        },
        {
          "internalType": "address",
          "name": "to",
          "type": "address"
        },
        {
          "internalType": "uint256",
          "name": "tokenId",
          "type": "uint256"
        }
      ],
      "name": "transferFrom",
      "outputs": [],
      "stateMutability": "nonpayable",
      "type": "function"
    }
  ],
  "bytecode": "0x6080604052604051806101e001604052806040518060400160405280600881526020017f4166666f7265737400000000000000000000000000000000000000000000000081525081526020016040518060400160405280600981526020017f41667465726d617468000000000000000000000000000000000000000000000081525081526020016040518060400160405280600681526020017f426563616c6d000000000000000000000000000000000000000000000000000081525081526020016040518060400160405280600a81526020017f426c69746865736f6d650000000000000000000000000000000000000000000081525081526020016040518060400160405280600a81526020017f42726f616473686565740000000000000000000000000000000000000000000081525081526020016040518060400160405280600a81526020017f427566666f6f6e6973680000000000000000000000000000000000000000000081525081526020016040518060400160405280600781526020017f436170726963650000000000000000000000000000000000000000000000000081525081526020016040518060400160405280600a81526020017f436170726963696f75730000000000000000000000000000000000000000000081525081526020016040518060400160405280600881526020017f436175736572696500000000000000000000000000000000000000000000000081525081526020016040518060400160405280600a81526020017f43686976616c726f75730000000000000000000000000000000000000000000081525081526020016040518060400160405280600e81526020017f436f6e67726174756c61746f727900000000000000000000000000000000000081525081526020016040518060400160405280600681526020017f446170706572000000000000000000000000000000000000000000000000000081525081526020016040518060400160405280600981526020017f4465626f6e61697265000000000000000000000000000000000000000000000081525081526020016040518060400160405280600e81526020017f446576696c2d4d61792d4361726500000000000000000000000000000000000081525081526020016040518060400160405280600881526020017f456d626c617a6f6e000000000000000000000000000000000000000000000000815250815250600890600f6200039592919062000df8565b506040518061022001604052806040518060400160405280600a81526020017f45756461656d6f6e69610000000000000000000000000000000000000000000081525081526020016040518060400160405280600881526020017f45787472656d756d00000000000000000000000000000000000000000000000081525081526020016040518060400160405280600881526020017f4578756c74616e7400000000000000000000000000000000000000000000000081525081526020016040518060400160405280600e81526020017f46656174686572627261696e656400000000000000000000000000000000000081525081526020016040518060400160405280600881526020017f46656c696369747900000000000000000000000000000000000000000000000081525081526020016040518060400160405280600d81526020017f466964646c652d466164646c650000000000000000000000000000000000000081525081526020016040518060400160405280600681526020017f476162626c65000000000000000000000000000000000000000000000000000081525081526020016040518060400160405280600781526020017f47616c6c616e740000000000000000000000000000000000000000000000000081525081526020016040518060400160405280600481526020017f47696c740000000000000000000000000000000000000000000000000000000081525081526020016040518060400160405280600781526020017f476c656566756c0000000000000000000000000000000000000000000000000081525081526020016040518060400160405280600781526020017f48616c63796f6e0000000000000000000000000000000000000000000000000081525081526020016040518060400160405280600e81526020017f48617070792d476f2d4c75636b7900000000000000000000000000000000000081525081526020016040518060400160405280600681526020017f486579646179000000000000000000000000000000000000000000000000000081525081526020016040518060400160405280600981526020017f486f74686561646564000000000000000000000000000000000000000000000081525081526020016040518060400160405280600381526020017f49736d000000000000000000000000000000000000000000000000000000000081525081526020016040518060400160405280600681526020017f4d6164636170000000000000000000000000000000000000000000000000000081525081526020016040518060400160405280600881526020017f4d616a657374696300000000000000000000000000000000000000000000000081525081525060099060116200079d92919062000e58565b506040518061028001604052806040518060400160405280600c81526020017f4d6572727920416e64726577000000000000000000000000000000000000000081525081526020016040518060400160405280600581526020017f4e6174747900000000000000000000000000000000000000000000000000000081525081526020016040518060400160405280600c81526020017f4e6f626c652d4d696e646564000000000000000000000000000000000000000081525081526020016040518060400160405280600681526020017f4e75616e6365000000000000000000000000000000000000000000000000000081525081526020016040518060400160405280600881526020017f5068616e7461737900000000000000000000000000000000000000000000000081525081526020016040518060400160405280600c81526020017f506f6c6c79616e6e61697368000000000000000000000000000000000000000081525081526020016040518060400160405280600581526020017f507261746500000000000000000000000000000000000000000000000000000081525081526020016040518060400160405280600581526020017f536170707900000000000000000000000000000000000000000000000000000081525081526020016040518060400160405280600681526020017f536e61707079000000000000000000000000000000000000000000000000000081525081526020016040518060400160405280600681526020017f537069666679000000000000000000000000000000000000000000000000000081525081526020016040518060400160405280600781526020017f5374756e6e65720000000000000000000000000000000000000000000000000081525081526020016040518060400160405280600a81526020017f54696d6265726c616e640000000000000000000000000000000000000000000081525081526020016040518060400160405280600681526020017f54696d627265000000000000000000000000000000000000000000000000000081525081526020016040518060400160405280600d81526020017f546974746c652d546174746c650000000000000000000000000000000000000081525081526020016040518060400160405280600781526020017f54776164646c650000000000000000000000000000000000000000000000000081525081526020016040518060400160405280600981526020017f56697669646e657373000000000000000000000000000000000000000000000081525081526020016040518060400160405280600981526020017f5765617269736f6d65000000000000000000000000000000000000000000000081525081526020016040518060400160405280600981526020017f5768696d736963616c000000000000000000000000000000000000000000000081525081526020016040518060400160405280600681526020017f5768696d7379000000000000000000000000000000000000000000000000000081525081526020016040518060400160405280600581526020017f5a69707079000000000000000000000000000000000000000000000000000000815250815250600a90601462000c5692919062000eb8565b5034801562000c6457600080fd5b506040518060400160405280600981526020017f5371756172654e465400000000000000000000000000000000000000000000008152506040518060400160405280600681526020017f5351554152450000000000000000000000000000000000000000000000000000815250816000908162000ce291906200121f565b50806001908162000cf491906200121f565b50505062000d266040518060600160405280602b815260200162004d73602b913962000d2c60201b62000f011760201c565b620013b9565b62000dcc8160405160240162000d43919062001395565b6040516020818303038152906040527f41304fac000000000000000000000000000000000000000000000000000000007bffffffffffffffffffffffffffffffffffffffffffffffffffffffff19166020820180517bffffffffffffffffffffffffffffffffffffffffffffffffffffffff838183161783525050505062000dcf60201b60201c565b50565b60008151905060006a636f6e736f6c652e6c6f679050602083016000808483855afa5050505050565b82805482825590600052602060002090810192821562000e45579160200282015b8281111562000e4457825182908162000e3391906200121f565b509160200191906001019062000e19565b5b50905062000e54919062000f18565b5090565b82805482825590600052602060002090810192821562000ea5579160200282015b8281111562000ea457825182908162000e9391906200121f565b509160200191906001019062000e79565b5b50905062000eb4919062000f18565b5090565b82805482825590600052602060002090810192821562000f05579160200282015b8281111562000f0457825182908162000ef391906200121f565b509160200191906001019062000ed9565b5b50905062000f14919062000f18565b5090565b5b8082111562000f3c576000818162000f32919062000f40565b5060010162000f19565b5090565b50805462000f4e906200100e565b6000825580601f1062000f62575062000f83565b601f01602090049060005260206000209081019062000f82919062000f86565b5b50565b5b8082111562000fa157600081600090555060010162000f87565b5090565b600081519050919050565b7f4e487b7100000000000000000000000000000000000000000000000000000000600052604160045260246000fd5b7f4e487b7100000000000000000000000000000000000000000000000000000000600052602260045260246000fd5b600060028204905060018216806200102757607f821691505b6020821081036200103d576200103c62000fdf565b5b50919050565b60008190508160005260206000209050919050565b60006020601f8301049050919050565b600082821b905092915050565b600060088302620010a77fffffffffffffffffffffffffffffffffffffffffffffffffffffffffffffffff8262001068565b620010b3868362001068565b95508019841693508086168417925050509392505050565b6000819050919050565b6000819050919050565b600062001100620010fa620010f484620010cb565b620010d5565b620010cb565b9050919050565b6000819050919050565b6200111c83620010df565b620011346200112b8262001107565b84845462001075565b825550505050565b600090565b6200114b6200113c565b6200115881848462001111565b505050565b5b8181101562001180576200117460008262001141565b6001810190506200115e565b5050565b601f821115620011cf57620011998162001043565b620011a48462001058565b81016020851015620011b4578190505b620011cc620011c38562001058565b8301826200115d565b50505b505050565b600082821c905092915050565b6000620011f460001984600802620011d4565b1980831691505092915050565b60006200120f8383620011e1565b9150826002028217905092915050565b6200122a8262000fa5565b67ffffffffffffffff81111562001246576200124562000fb0565b5b6200125282546200100e565b6200125f82828562001184565b600060209050601f83116001811462001297576000841562001282578287015190505b6200128e858262001201565b865550620012fe565b601f198416620012a78662001043565b60005b82811015620012d157848901518255600182019150602085019450602081019050620012aa565b86831015620012f15784890151620012ed601f891682620011e1565b8355505b6001600288020188555050505b505050505050565b600082825260208201905092915050565b60005b83811015620013375780820151818401526020810190506200131a565b60008484015250505050565b6000601f19601f8301169050919050565b6000620013618262000fa5565b6200136d818562001306565b93506200137f81856020860162001317565b6200138a8162001343565b840191505092915050565b60006020820190508181036000830152620013b1818462001354565b905092915050565b6139aa80620013c96000396000f3fe608060405234801561001057600080fd5b506004361061010b5760003560e01c80636352211e116100a2578063a22cb46511610071578063a22cb465146102de578063b88d4fde146102fa578063c87b56dd14610316578063de9d132f14610346578063e985e9c5146103505761010b565b80636352211e1461024257806370a08231146102725780637c5f313b146102a257806395d89b41146102c05761010b565b806310279749116100de57806310279749146101aa57806323b872dd146101da5780633cfc1f8b146101f657806342842e0e146102265761010b565b806301ffc9a71461011057806306fdde0314610140578063081812fc1461015e578063095ea7b31461018e575b600080fd5b61012a600480360381019061012591906120be565b610380565b6040516101379190612106565b60405180910390f35b610148610462565b60405161015591906121b1565b60405180910390f35b61017860048036038101906101739190612209565b6104f4565b6040516101859190612277565b60405180910390f35b6101a860048036038101906101a391906122be565b61053a565b005b6101c460048036038101906101bf9190612433565b610651565b6040516101d191906121b1565b60405180910390f35b6101f460048036038101906101ef91906124ab565b6106d5565b005b610210600480360381019061020b91906124fe565b610735565b60405161021d91906121b1565b60405180910390f35b610240600480360381019061023b91906124ab565b6107b6565b005b61025c60048036038101906102579190612209565b6107d6565b6040516102699190612277565b60405180910390f35b61028c60048036038101906102879190612547565b610887565b6040516102999190612583565b60405180910390f35b6102aa61093e565b6040516102b791906121b1565b60405180910390f35b6102c8610b9c565b6040516102d591906121b1565b60405180910390f35b6102f860048036038101906102f391906125ca565b610c2e565b005b610314600480360381019061030f91906126ab565b610c44565b005b610330600480360381019061032b9190612209565b610ca6565b60405161033d91906121b1565b60405180910390f35b61034e610db8565b005b61036a6004803603810190610365919061272e565b610e6d565b6040516103779190612106565b60405180910390f35b60007f80ac58cd000000000000000000000000000000000000000000000000000000007bffffffffffffffffffffffffffffffffffffffffffffffffffffffff1916827bffffffffffffffffffffffffffffffffffffffffffffffffffffffff1916148061044b57507f5b5e139f000000000000000000000000000000000000000000000000000000007bffffffffffffffffffffffffffffffffffffffffffffffffffffffff1916827bffffffffffffffffffffffffffffffffffffffffffffffffffffffff1916145b8061045b575061045a82610f9a565b5b9050919050565b6060600080546104719061279d565b80601f016020809104026020016040519081016040528092919081815260200182805461049d9061279d565b80156104ea5780601f106104bf576101008083540402835291602001916104ea565b820191906000526020600020905b8154815290600101906020018083116104cd57829003601f168201915b5050505050905090565b60006104ff82611004565b6004600083815260200190815260200160002060009054906101000a900473ffffffffffffffffffffffffffffffffffffffff169050919050565b6000610545826107d6565b90508073ffffffffffffffffffffffffffffffffffffffff168373ffffffffffffffffffffffffffffffffffffffff16036105b5576040517f08c379a00000000000000000000000000000000000000000000000000000000081526004016105ac90612840565b60405180910390fd5b8073ffffffffffffffffffffffffffffffffffffffff166105d461104f565b73ffffffffffffffffffffffffffffffffffffffff1614806106035750610602816105fd61104f565b610e6d565b5b610642576040517f08c379a0000000000000000000000000000000000000000000000000000000008152600401610639906128d2565b60405180910390fd5b61064c8383611057565b505050565b6060600083836040516020016106689291906129ec565b604051602081830303815290604052905060006106a38260405160200161068f9190612a39565b604051602081830303815290604052611110565b90506000816040516020016106b89190612a76565b604051602081830303815290604052905080935050505092915050565b6106e66106e061104f565b826112a7565b610725576040517f08c379a000000000000000000000000000000000000000000000000000000000815260040161071c90612b0e565b60405180910390fd5b61073083838361133c565b505050565b606060008260405160200161074a9190612cfa565b60405160208183030381529060405290506000610785826040516020016107719190612a39565b604051602081830303815290604052611110565b905060008160405160200161079a9190612a76565b6040516020818303038152906040529050809350505050919050565b6107d183838360405180602001604052806000815250610c44565b505050565b6000806002600084815260200190815260200160002060009054906101000a900473ffffffffffffffffffffffffffffffffffffffff169050600073ffffffffffffffffffffffffffffffffffffffff168173ffffffffffffffffffffffffffffffffffffffff160361087e576040517f08c379a000000000000000000000000000000000000000000000000000000000815260040161087590612d77565b60405180910390fd5b80915050919050565b60008073ffffffffffffffffffffffffffffffffffffffff168273ffffffffffffffffffffffffffffffffffffffff16036108f7576040517f08c379a00000000000000000000000000000000000000000000000000000000081526004016108ee90612e09565b60405180910390fd5b600360008373ffffffffffffffffffffffffffffffffffffffff1673ffffffffffffffffffffffffffffffffffffffff168152602001908152602001600020549050919050565b60606000600880549050600860008154811061095d5761095c612e29565b5b9060005260206000200161097961097460076115a2565b6115b0565b4260405160200161098c93929190612f11565b6040516020818303038152906040528051906020012060001c6109af9190612f75565b9050600060098054905060096000815481106109ce576109cd612e29565b5b906000526020600020016109ea6109e560076115a2565b6115b0565b426040516020016109fd93929190612f11565b6040516020818303038152906040528051906020012060001c610a209190612f75565b90506000600a80549050600a600081548110610a3f57610a3e612e29565b5b90600052602060002001610a5b610a5660076115a2565b6115b0565b42604051602001610a6e93929190612f11565b6040516020818303038152906040528051906020012060001c610a919190612f75565b9050610ad46040518060400160405280601681526020017f576f7264206e756d626572733a20256420256420256400000000000000000000815250848484611710565b600060088481548110610aea57610ae9612e29565b5b9060005260206000200160098481548110610b0857610b07612e29565b5b90600052602060002001600a8481548110610b2657610b25612e29565b5b90600052602060002001604051602001610b4293929190612fa6565b6040516020818303038152906040529050610b926040518060400160405280601a81526020017f436f6e636174656e6174656420737472696e672069733a202573000000000000815250826117b2565b8094505050505090565b606060018054610bab9061279d565b80601f0160208091040260200160405190810160405280929190818152602001828054610bd79061279d565b8015610c245780601f10610bf957610100808354040283529160200191610c24565b820191906000526020600020905b815481529060010190602001808311610c0757829003601f168201915b5050505050905090565b610c40610c3961104f565b838361184e565b5050565b610c55610c4f61104f565b836112a7565b610c94576040517f08c379a0000000000000000000000000000000000000000000000000000000008152600401610c8b90612b0e565b60405180910390fd5b610ca0848484846119ba565b50505050565b6060610cb182611004565b6000600660008481526020019081526020016000208054610cd19061279d565b80601f0160208091040260200160405190810160405280929190818152602001828054610cfd9061279d565b8015610d4a5780601f10610d1f57610100808354040283529160200191610d4a565b820191906000526020600020905b815481529060010190602001808311610d2d57829003601f168201915b505050505090506000610d5b611a16565b90506000815103610d70578192505050610db3565b600082511115610da5578082604051602001610d8d929190612fd7565b60405160208183030381529060405292505050610db3565b610dae84611a2d565b925050505b919050565b6000610dc460076115a2565b90506000610dd061093e565b90506000610ddd82610735565b90506000610deb8383610651565b9050610df73385611a95565b610e018482611ab3565b610e24604051806060016040528060258152602001613910602591398533611b20565b610e2e6007611bbf565b7febb98688741ffa4c7589bf325de30cf7becb63de567842e1ccdb6cb949fdc82c3385604051610e5f929190612ffb565b60405180910390a150505050565b6000600560008473ffffffffffffffffffffffffffffffffffffffff1673ffffffffffffffffffffffffffffffffffffffff16815260200190815260200160002060008373ffffffffffffffffffffffffffffffffffffffff1673ffffffffffffffffffffffffffffffffffffffff16815260200190815260200160002060009054906101000a900460ff16905092915050565b610f9781604051602401610f1591906121b1565b6040516020818303038152906040527f41304fac000000000000000000000000000000000000000000000000000000007bffffffffffffffffffffffffffffffffffffffffffffffffffffffff19166020820180517bffffffffffffffffffffffffffffffffffffffffffffffffffffffff8381831617835250505050611bd5565b50565b60007f01ffc9a7000000000000000000000000000000000000000000000000000000007bffffffffffffffffffffffffffffffffffffffffffffffffffffffff1916827bffffffffffffffffffffffffffffffffffffffffffffffffffffffff1916149050919050565b61100d81611bfe565b61104c576040517f08c379a000000000000000000000000000000000000000000000000000000000815260040161104390612d77565b60405180910390fd5b50565b600033905090565b816004600083815260200190815260200160002060006101000a81548173ffffffffffffffffffffffffffffffffffffffff021916908373ffffffffffffffffffffffffffffffffffffffff160217905550808273ffffffffffffffffffffffffffffffffffffffff166110ca836107d6565b73ffffffffffffffffffffffffffffffffffffffff167f8c5be1e5ebec7d5bd14f71427d1e84f3dd0314c0f7b2291e5b200ac8c7c3b92560405160405180910390a45050565b60606000825190506000810361113857604051806020016040528060008152509150506112a2565b600060036002836111499190613053565b6111539190613087565b600461115f91906130b8565b905060006020826111709190613053565b67ffffffffffffffff81111561118957611188612308565b5b6040519080825280601f01601f1916602001820160405280156111bb5781602001600182028036833780820191505090505b5090506000604051806060016040528060408152602001613935604091399050600181016020830160005b8681101561125f5760038101905062ffffff818a015116603f8160121c168401518060081b905060ff603f83600c1c1686015116810190508060081b905060ff603f8360061c1686015116810190508060081b905060ff603f831686015116810190508060e01b905080845260048401935050506111e6565b506003860660018114611279576002811461128957611294565b613d3d60f01b6002830352611294565b603d60f81b60018303525b508484525050819450505050505b919050565b6000806112b3836107d6565b90508073ffffffffffffffffffffffffffffffffffffffff168473ffffffffffffffffffffffffffffffffffffffff1614806112f557506112f48185610e6d565b5b8061133357508373ffffffffffffffffffffffffffffffffffffffff1661131b846104f4565b73ffffffffffffffffffffffffffffffffffffffff16145b91505092915050565b8273ffffffffffffffffffffffffffffffffffffffff1661135c826107d6565b73ffffffffffffffffffffffffffffffffffffffff16146113b2576040517f08c379a00000000000000000000000000000000000000000000000000000000081526004016113a99061316c565b60405180910390fd5b600073ffffffffffffffffffffffffffffffffffffffff168273ffffffffffffffffffffffffffffffffffffffff1603611421576040517f08c379a0000000000000000000000000000000000000000000000000000000008152600401611418906131fe565b60405180910390fd5b61142c838383611c6a565b611437600082611057565b6001600360008573ffffffffffffffffffffffffffffffffffffffff1673ffffffffffffffffffffffffffffffffffffffff1681526020019081526020016000206000828254611487919061321e565b925050819055506001600360008473ffffffffffffffffffffffffffffffffffffffff1673ffffffffffffffffffffffffffffffffffffffff16815260200190815260200160002060008282546114de9190613053565b92505081905550816002600083815260200190815260200160002060006101000a81548173ffffffffffffffffffffffffffffffffffffffff021916908373ffffffffffffffffffffffffffffffffffffffff160217905550808273ffffffffffffffffffffffffffffffffffffffff168473ffffffffffffffffffffffffffffffffffffffff167fddf252ad1be2c89b69c2b068fc378daa952ba7f163c4a11628f55a4df523b3ef60405160405180910390a461159d838383611c6f565b505050565b600081600001549050919050565b6060600082036115f7576040518060400160405280600181526020017f3000000000000000000000000000000000000000000000000000000000000000815250905061170b565b600082905060005b6000821461162957808061161290613252565b915050600a826116229190613087565b91506115ff565b60008167ffffffffffffffff81111561164557611644612308565b5b6040519080825280601f01601f1916602001820160405280156116775781602001600182028036833780820191505090505b5090505b6000851461170457600182611690919061321e565b9150600a8561169f9190612f75565b60306116ab9190613053565b60f81b8183815181106116c1576116c0612e29565b5b60200101907effffffffffffffffffffffffffffffffffffffffffffffffffffffffffffff1916908160001a905350600a856116fd9190613087565b945061167b565b8093505050505b919050565b6117ac8484848460405160240161172a949392919061329a565b6040516020818303038152906040527fa7a87853000000000000000000000000000000000000000000000000000000007bffffffffffffffffffffffffffffffffffffffffffffffffffffffff19166020820180517bffffffffffffffffffffffffffffffffffffffffffffffffffffffff8381831617835250505050611bd5565b50505050565b61184a82826040516024016117c89291906132e6565b6040516020818303038152906040527f4b5c4277000000000000000000000000000000000000000000000000000000007bffffffffffffffffffffffffffffffffffffffffffffffffffffffff19166020820180517bffffffffffffffffffffffffffffffffffffffffffffffffffffffff8381831617835250505050611bd5565b5050565b8173ffffffffffffffffffffffffffffffffffffffff168373ffffffffffffffffffffffffffffffffffffffff16036118bc576040517f08c379a00000000000000000000000000000000000000000000000000000000081526004016118b390613369565b60405180910390fd5b80600560008573ffffffffffffffffffffffffffffffffffffffff1673ffffffffffffffffffffffffffffffffffffffff16815260200190815260200160002060008473ffffffffffffffffffffffffffffffffffffffff1673ffffffffffffffffffffffffffffffffffffffff16815260200190815260200160002060006101000a81548160ff0219169083151502179055508173ffffffffffffffffffffffffffffffffffffffff168373ffffffffffffffffffffffffffffffffffffffff167f17307eab39ab6107e8899845ad3d59bd9653f200f220920489ca2b5937696c31836040516119ad9190612106565b60405180910390a3505050565b6119c584848461133c565b6119d184848484611c74565b611a10576040517f08c379a0000000000000000000000000000000000000000000000000000000008152600401611a07906133fb565b60405180910390fd5b50505050565b606060405180602001604052806000815250905090565b6060611a3882611004565b6000611a42611a16565b90506000815111611a625760405180602001604052806000815250611a8d565b80611a6c846115b0565b604051602001611a7d929190612fd7565b6040516020818303038152906040525b915050919050565b611aaf828260405180602001604052806000815250611dfb565b5050565b611abc82611bfe565b611afb576040517f08c379a0000000000000000000000000000000000000000000000000000000008152600401611af29061348d565b60405180910390fd5b80600660008481526020019081526020016000209081611b1b9190613644565b505050565b611bba838383604051602401611b3893929190613716565b6040516020818303038152906040527f1c7ec448000000000000000000000000000000000000000000000000000000007bffffffffffffffffffffffffffffffffffffffffffffffffffffffff19166020820180517bffffffffffffffffffffffffffffffffffffffffffffffffffffffff8381831617835250505050611bd5565b505050565b6001816000016000828254019250508190555050565b60008151905060006a636f6e736f6c652e6c6f679050602083016000808483855afa5050505050565b60008073ffffffffffffffffffffffffffffffffffffffff166002600084815260200190815260200160002060009054906101000a900473ffffffffffffffffffffffffffffffffffffffff1673ffffffffffffffffffffffffffffffffffffffff1614159050919050565b505050565b505050565b6000611c958473ffffffffffffffffffffffffffffffffffffffff16611e56565b15611dee578373ffffffffffffffffffffffffffffffffffffffff1663150b7a02611cbe61104f565b8786866040518563ffffffff1660e01b8152600401611ce094939291906137a9565b6020604051808303816000875af1925050508015611d1c57506040513d601f19601f82011682018060405250810190611d19919061380a565b60015b611d9e573d8060008114611d4c576040519150601f19603f3d011682016040523d82523d6000602084013e611d51565b606091505b506000815103611d96576040517f08c379a0000000000000000000000000000000000000000000000000000000008152600401611d8d906133fb565b60405180910390fd5b805181602001fd5b63150b7a0260e01b7bffffffffffffffffffffffffffffffffffffffffffffffffffffffff1916817bffffffffffffffffffffffffffffffffffffffffffffffffffffffff191614915050611df3565b600190505b949350505050565b611e058383611e79565b611e126000848484611c74565b611e51576040517f08c379a0000000000000000000000000000000000000000000000000000000008152600401611e48906133fb565b60405180910390fd5b505050565b6000808273ffffffffffffffffffffffffffffffffffffffff163b119050919050565b600073ffffffffffffffffffffffffffffffffffffffff168273ffffffffffffffffffffffffffffffffffffffff1603611ee8576040517f08c379a0000000000000000000000000000000000000000000000000000000008152600401611edf90613883565b60405180910390fd5b611ef181611bfe565b15611f31576040517f08c379a0000000000000000000000000000000000000000000000000000000008152600401611f28906138ef565b60405180910390fd5b611f3d60008383611c6a565b6001600360008473ffffffffffffffffffffffffffffffffffffffff1673ffffffffffffffffffffffffffffffffffffffff1681526020019081526020016000206000828254611f8d9190613053565b92505081905550816002600083815260200190815260200160002060006101000a81548173ffffffffffffffffffffffffffffffffffffffff021916908373ffffffffffffffffffffffffffffffffffffffff160217905550808273ffffffffffffffffffffffffffffffffffffffff16600073ffffffffffffffffffffffffffffffffffffffff167fddf252ad1be2c89b69c2b068fc378daa952ba7f163c4a11628f55a4df523b3ef60405160405180910390a461204e60008383611c6f565b5050565b6000604051905090565b600080fd5b600080fd5b60007fffffffff0000000000000000000000000000000000000000000000000000000082169050919050565b61209b81612066565b81146120a657600080fd5b50565b6000813590506120b881612092565b92915050565b6000602082840312156120d4576120d361205c565b5b60006120e2848285016120a9565b91505092915050565b60008115159050919050565b612100816120eb565b82525050565b600060208201905061211b60008301846120f7565b92915050565b600081519050919050565b600082825260208201905092915050565b60005b8381101561215b578082015181840152602081019050612140565b60008484015250505050565b6000601f19601f8301169050919050565b600061218382612121565b61218d818561212c565b935061219d81856020860161213d565b6121a681612167565b840191505092915050565b600060208201905081810360008301526121cb8184612178565b905092915050565b6000819050919050565b6121e6816121d3565b81146121f157600080fd5b50565b600081359050612203816121dd565b92915050565b60006020828403121561221f5761221e61205c565b5b600061222d848285016121f4565b91505092915050565b600073ffffffffffffffffffffffffffffffffffffffff82169050919050565b600061226182612236565b9050919050565b61227181612256565b82525050565b600060208201905061228c6000830184612268565b92915050565b61229b81612256565b81146122a657600080fd5b50565b6000813590506122b881612292565b92915050565b600080604083850312156122d5576122d461205c565b5b60006122e3858286016122a9565b92505060206122f4858286016121f4565b9150509250929050565b600080fd5b600080fd5b7f4e487b7100000000000000000000000000000000000000000000000000000000600052604160045260246000fd5b61234082612167565b810181811067ffffffffffffffff8211171561235f5761235e612308565b5b80604052505050565b6000612372612052565b905061237e8282612337565b919050565b600067ffffffffffffffff82111561239e5761239d612308565b5b6123a782612167565b9050602081019050919050565b82818337600083830152505050565b60006123d66123d184612383565b612368565b9050828152602081018484840111156123f2576123f1612303565b5b6123fd8482856123b4565b509392505050565b600082601f83011261241a576124196122fe565b5b813561242a8482602086016123c3565b91505092915050565b6000806040838503121561244a5761244961205c565b5b600083013567ffffffffffffffff81111561246857612467612061565b5b61247485828601612405565b925050602083013567ffffffffffffffff81111561249557612494612061565b5b6124a185828601612405565b9150509250929050565b6000806000606084860312156124c4576124c361205c565b5b60006124d2868287016122a9565b93505060206124e3868287016122a9565b92505060406124f4868287016121f4565b9150509250925092565b6000602082840312156125145761251361205c565b5b600082013567ffffffffffffffff81111561253257612531612061565b5b61253e84828501612405565b91505092915050565b60006020828403121561255d5761255c61205c565b5b600061256b848285016122a9565b91505092915050565b61257d816121d3565b82525050565b60006020820190506125986000830184612574565b92915050565b6125a7816120eb565b81146125b257600080fd5b50565b6000813590506125c48161259e565b92915050565b600080604083850312156125e1576125e061205c565b5b60006125ef858286016122a9565b9250506020612600858286016125b5565b9150509250929050565b600067ffffffffffffffff82111561262557612624612308565b5b61262e82612167565b9050602081019050919050565b600061264e6126498461260a565b612368565b90508281526020810184848401111561266a57612669612303565b5b6126758482856123b4565b509392505050565b600082601f830112612692576126916122fe565b5b81356126a284826020860161263b565b91505092915050565b600080600080608085870312156126c5576126c461205c565b5b60006126d3878288016122a9565b94505060206126e4878288016122a9565b93505060406126f5878288016121f4565b925050606085013567ffffffffffffffff81111561271657612715612061565b5b6127228782880161267d565b91505092959194509250565b600080604083850312156127455761274461205c565b5b6000612753858286016122a9565b9250506020612764858286016122a9565b9150509250929050565b7f4e487b7100000000000000000000000000000000000000000000000000000000600052602260045260246000fd5b600060028204905060018216806127b557607f821691505b6020821081036127c8576127c761276e565b5b50919050565b7f4552433732313a20617070726f76616c20746f2063757272656e74206f776e6560008201527f7200000000000000000000000000000000000000000000000000000000000000602082015250565b600061282a60218361212c565b9150612835826127ce565b604082019050919050565b600060208201905081810360008301526128598161281d565b9050919050565b7f4552433732313a20617070726f76652063616c6c6572206973206e6f7420746f60008201527f6b656e206f776e6572206e6f7220617070726f76656420666f7220616c6c0000602082015250565b60006128bc603e8361212c565b91506128c782612860565b604082019050919050565b600060208201905081810360008301526128eb816128af565b9050919050565b7f7b226e616d65223a202200000000000000000000000000000000000000000000815250565b600081905092915050565b600061292e82612121565b6129388185612918565b935061294881856020860161213d565b80840191505092915050565b7f222c20226465736372697074696f6e22203a202246756e6e7920636f6c6c656360008201527f74696f6e206f6620737175617265732e222c2022696d61676522203a20220000602082015250565b60006129b0603e83612918565b91506129bb82612954565b603e82019050919050565b7f227d000000000000000000000000000000000000000000000000000000000000815250565b60006129f7826128f2565b600a82019150612a078285612923565b9150612a12826129a3565b9150612a1e8284612923565b9150612a29826129c6565b6002820191508190509392505050565b6000612a458284612923565b915081905092915050565b7f646174613a6170706c69636174696f6e2f6a736f6e3b6261736536342c000000815250565b6000612a8182612a50565b601d82019150612a918284612923565b915081905092915050565b7f4552433732313a2063616c6c6572206973206e6f7420746f6b656e206f776e6560008201527f72206e6f7220617070726f766564000000000000000000000000000000000000602082015250565b6000612af8602e8361212c565b9150612b0382612a9c565b604082019050919050565b60006020820190508181036000830152612b2781612aeb565b9050919050565b7f3c73766720786d6c6e733d27687474703a2f2f7777772e77332e6f72672f323060008201527f30302f73766727207072657365727665417370656374526174696f3d27784d6960208201527f6e594d696e206d656574272076696577426f783d27302030203335302033353060408201527f273e3c7374796c653e2e62617365207b2066696c6c3a2077686974653b20666f60608201527f6e742d66616d696c793a2073657269663b20666f6e742d73697a653a2032347060808201527f783b207d3c2f7374796c653e3c726563742077696474683d273130302527206860a08201527f65696768743d2731303025272066696c6c3d27626c61636b27202f3e3c74657860c08201527f7420783d273530252720793d273530252720636c6173733d276261736527206460e08201527f6f6d696e616e742d626173656c696e653d276d6964646c652720746578742d616101008201527f6e63686f723d276d6964646c65273e000000000000000000000000000000000061012082015250565b6000612cbd61012f83612918565b9150612cc882612b2e565b61012f82019050919050565b7f3c2f746578743e3c2f7376673e00000000000000000000000000000000000000815250565b6000612d0582612caf565b9150612d118284612923565b9150612d1c82612cd4565b600d8201915081905092915050565b7f4552433732313a20696e76616c696420746f6b656e2049440000000000000000600082015250565b6000612d6160188361212c565b9150612d6c82612d2b565b602082019050919050565b60006020820190508181036000830152612d9081612d54565b9050919050565b7f4552433732313a2061646472657373207a65726f206973206e6f74206120766160008201527f6c6964206f776e65720000000000000000000000000000000000000000000000602082015250565b6000612df360298361212c565b9150612dfe82612d97565b604082019050919050565b60006020820190508181036000830152612e2281612de6565b9050919050565b7f4e487b7100000000000000000000000000000000000000000000000000000000600052603260045260246000fd5b60008190508160005260206000209050919050565b60008154612e7a8161279d565b612e848186612918565b94506001821660008114612e9f5760018114612eb457612ee7565b60ff1983168652811515820286019350612ee7565b612ebd85612e58565b60005b83811015612edf57815481890152600182019150602081019050612ec0565b838801955050505b50505092915050565b6000819050919050565b612f0b612f06826121d3565b612ef0565b82525050565b6000612f1d8286612e6d565b9150612f298285612923565b9150612f358284612efa565b602082019150819050949350505050565b7f4e487b7100000000000000000000000000000000000000000000000000000000600052601260045260246000fd5b6000612f80826121d3565b9150612f8b836121d3565b925082612f9b57612f9a612f46565b5b828206905092915050565b6000612fb28286612e6d565b9150612fbe8285612e6d565b9150612fca8284612e6d565b9150819050949350505050565b6000612fe38285612923565b9150612fef8284612923565b91508190509392505050565b60006040820190506130106000830185612268565b61301d6020830184612574565b9392505050565b7f4e487b7100000000000000000000000000000000000000000000000000000000600052601160045260246000fd5b600061305e826121d3565b9150613069836121d3565b925082820190508082111561308157613080613024565b5b92915050565b6000613092826121d3565b915061309d836121d3565b9250826130ad576130ac612f46565b5b828204905092915050565b60006130c3826121d3565b91506130ce836121d3565b92508282026130dc816121d3565b915082820484148315176130f3576130f2613024565b5b5092915050565b7f4552433732313a207472616e736665722066726f6d20696e636f72726563742060008201527f6f776e6572000000000000000000000000000000000000000000000000000000602082015250565b600061315660258361212c565b9150613161826130fa565b604082019050919050565b6000602082019050818103600083015261318581613149565b9050919050565b7f4552433732313a207472616e7366657220746f20746865207a65726f2061646460008201527f7265737300000000000000000000000000000000000000000000000000000000602082015250565b60006131e860248361212c565b91506131f38261318c565b604082019050919050565b60006020820190508181036000830152613217816131db565b9050919050565b6000613229826121d3565b9150613234836121d3565b925082820390508181111561324c5761324b613024565b5b92915050565b600061325d826121d3565b91507fffffffffffffffffffffffffffffffffffffffffffffffffffffffffffffffff820361328f5761328e613024565b5b600182019050919050565b600060808201905081810360008301526132b48187612178565b90506132c36020830186612574565b6132d06040830185612574565b6132dd6060830184612574565b95945050505050565b600060408201905081810360008301526133008185612178565b905081810360208301526133148184612178565b90509392505050565b7f4552433732313a20617070726f766520746f2063616c6c657200000000000000600082015250565b600061335360198361212c565b915061335e8261331d565b602082019050919050565b6000602082019050818103600083015261338281613346565b9050919050565b7f4552433732313a207472616e7366657220746f206e6f6e20455243373231526560008201527f63656976657220696d706c656d656e7465720000000000000000000000000000602082015250565b60006133e560328361212c565b91506133f082613389565b604082019050919050565b60006020820190508181036000830152613414816133d8565b9050919050565b7f45524337323155524953746f726167653a2055524920736574206f66206e6f6e60008201527f6578697374656e7420746f6b656e000000000000000000000000000000000000602082015250565b6000613477602e8361212c565b91506134828261341b565b604082019050919050565b600060208201905081810360008301526134a68161346a565b9050919050565b60006020601f8301049050919050565b600082821b905092915050565b6000600883026134fa7fffffffffffffffffffffffffffffffffffffffffffffffffffffffffffffffff826134bd565b61350486836134bd565b95508019841693508086168417925050509392505050565b6000819050919050565b600061354161353c613537846121d3565b61351c565b6121d3565b9050919050565b6000819050919050565b61355b83613526565b61356f61356782613548565b8484546134ca565b825550505050565b600090565b613584613577565b61358f818484613552565b505050565b5b818110156135b3576135a860008261357c565b600181019050613595565b5050565b601f8211156135f8576135c981612e58565b6135d2846134ad565b810160208510156135e1578190505b6135f56135ed856134ad565b830182613594565b50505b505050565b600082821c905092915050565b600061361b600019846008026135fd565b1980831691505092915050565b6000613634838361360a565b9150826002028217905092915050565b61364d82612121565b67ffffffffffffffff81111561366657613665612308565b5b613670825461279d565b61367b8282856135b7565b600060209050601f8311600181146136ae576000841561369c578287015190505b6136a68582613628565b86555061370e565b601f1984166136bc86612e58565b60005b828110156136e4578489015182556001820191506020850194506020810190506136bf565b8683101561370157848901516136fd601f89168261360a565b8355505b6001600288020188555050505b505050505050565b600060608201905081810360008301526137308186612178565b905061373f6020830185612574565b61374c6040830184612268565b949350505050565b600081519050919050565b600082825260208201905092915050565b600061377b82613754565b613785818561375f565b935061379581856020860161213d565b61379e81612167565b840191505092915050565b60006080820190506137be6000830187612268565b6137cb6020830186612268565b6137d86040830185612574565b81810360608301526137ea8184613770565b905095945050505050565b60008151905061380481612092565b92915050565b6000602082840312156138205761381f61205c565b5b600061382e848285016137f5565b91505092915050565b7f4552433732313a206d696e7420746f20746865207a65726f2061646472657373600082015250565b600061386d60208361212c565b915061387882613837565b602082019050919050565b6000602082019050818103600083015261389c81613860565b9050919050565b7f4552433732313a20746f6b656e20616c7265616479206d696e74656400000000600082015250565b60006138d9601c8361212c565b91506138e4826138a3565b602082019050919050565b60006020820190508181036000830152613908816138cc565b905091905056fe416e204e465420772f20494420257320686173206265656e206d696e74656420746f2025734142434445464748494a4b4c4d4e4f505152535455565758595a6162636465666768696a6b6c6d6e6f707172737475767778797a303132333435363738392b2fa2646970667358221220636c40f540236b8677fe42c414f97038ce6df7887436118d3fc949b50435e6b564736f6c6343000811003349276d206578636974656420746f20676574206d79204e465420636f6e747261637420776f726b696e6721",
  "linkReferences": {},
  "deployedLinkReferences": {}
}