{
  "_format": "hh-sol-artifact-1",
  "contractName": "MyEpicNFT",
  "sourceName": "contracts/MyEpicNFT.sol",
  "abi": [
    {
      "inputs": [],
      "stateMutability": "nonpayable",
      "type": "constructor"
    },
    {
      "anonymous": false,
      "inputs": [
        {
          "indexed": true,
          "internalType": "address",
          "name": "owner",
          "type": "address"
        },
        {
          "indexed": true,
          "internalType": "address",
          "name": "approved",
          "type": "address"
        },
        {
          "indexed": true,
          "internalType": "uint256",
          "name": "tokenId",
          "type": "uint256"
        }
      ],
      "name": "Approval",
      "type": "event"
    },
    {
      "anonymous": false,
      "inputs": [
        {
          "indexed": true,
          "internalType": "address",
          "name": "owner",
          "type": "address"
        },
        {
          "indexed": true,
          "internalType": "address",
          "name": "operator",
          "type": "address"
        },
        {
          "indexed": false,
          "internalType": "bool",
          "name": "approved",
          "type": "bool"
        }
      ],
      "name": "ApprovalForAll",
      "type": "event"
    },
    {
      "anonymous": false,
      "inputs": [
        {
          "indexed": false,
          "internalType": "address",
          "name": "sender",
          "type": "address"
        },
        {
          "indexed": false,
          "internalType": "uint256",
          "name": "tokenId",
          "type": "uint256"
        }
      ],
      "name": "NewEpicNFTMinted",
      "type": "event"
    },
    {
      "anonymous": false,
      "inputs": [
        {
          "indexed": true,
          "internalType": "address",
          "name": "from",
          "type": "address"
        },
        {
          "indexed": true,
          "internalType": "address",
          "name": "to",
          "type": "address"
        },
        {
          "indexed": true,
          "internalType": "uint256",
          "name": "tokenId",
          "type": "uint256"
        }
      ],
      "name": "Transfer",
      "type": "event"
    },
    {
      "inputs": [
        {
          "internalType": "address",
          "name": "to",
          "type": "address"
        },
        {
          "internalType": "uint256",
          "name": "tokenId",
          "type": "uint256"
        }
      ],
      "name": "approve",
      "outputs": [],
      "stateMutability": "nonpayable",
      "type": "function"
    },
    {
      "inputs": [
        {
          "internalType": "address",
          "name": "owner",
          "type": "address"
        }
      ],
      "name": "balanceOf",
      "outputs": [
        {
          "internalType": "uint256",
          "name": "",
          "type": "uint256"
        }
      ],
      "stateMutability": "view",
      "type": "function"
    },
    {
      "inputs": [
        {
          "internalType": "uint256",
          "name": "tokenId",
          "type": "uint256"
        }
      ],
      "name": "getApproved",
      "outputs": [
        {
          "internalType": "address",
          "name": "",
          "type": "address"
        }
      ],
      "stateMutability": "view",
      "type": "function"
    },
    {
      "inputs": [],
      "name": "getTotalNFTsMintedSoFar",
      "outputs": [
        {
          "internalType": "uint256",
          "name": "",
          "type": "uint256"
        }
      ],
      "stateMutability": "view",
      "type": "function"
    },
    {
      "inputs": [
        {
          "internalType": "address",
          "name": "owner",
          "type": "address"
        },
        {
          "internalType": "address",
          "name": "operator",
          "type": "address"
        }
      ],
      "name": "isApprovedForAll",
      "outputs": [
        {
          "internalType": "bool",
          "name": "",
          "type": "bool"
        }
      ],
      "stateMutability": "view",
      "type": "function"
    },
    {
      "inputs": [
        {
          "internalType": "string",
          "name": "_ipfsLink",
          "type": "string"
        }
      ],
      "name": "makeRandomNFTFromIPFS",
      "outputs": [],
      "stateMutability": "nonpayable",
      "type": "function"
    },
    {
      "inputs": [],
      "name": "name",
      "outputs": [
        {
          "internalType": "string",
          "name": "",
          "type": "string"
        }
      ],
      "stateMutability": "view",
      "type": "function"
    },
    {
      "inputs": [
        {
          "internalType": "uint256",
          "name": "tokenId",
          "type": "uint256"
        }
      ],
      "name": "ownerOf",
      "outputs": [
        {
          "internalType": "address",
          "name": "",
          "type": "address"
        }
      ],
      "stateMutability": "view",
      "type": "function"
    },
    {
      "inputs": [
        {
          "internalType": "address",
          "name": "from",
          "type": "address"
        },
        {
          "internalType": "address",
          "name": "to",
          "type": "address"
        },
        {
          "internalType": "uint256",
          "name": "tokenId",
          "type": "uint256"
        }
      ],
      "name": "safeTransferFrom",
      "outputs": [],
      "stateMutability": "nonpayable",
      "type": "function"
    },
    {
      "inputs": [
        {
          "internalType": "address",
          "name": "from",
          "type": "address"
        },
        {
          "internalType": "address",
          "name": "to",
          "type": "address"
        },
        {
          "internalType": "uint256",
          "name": "tokenId",
          "type": "uint256"
        },
        {
          "internalType": "bytes",
          "name": "data",
          "type": "bytes"
        }
      ],
      "name": "safeTransferFrom",
      "outputs": [],
      "stateMutability": "nonpayable",
      "type": "function"
    },
    {
      "inputs": [
        {
          "internalType": "address",
          "name": "operator",
          "type": "address"
        },
        {
          "internalType": "bool",
          "name": "approved",
          "type": "bool"
        }
      ],
      "name": "setApprovalForAll",
      "outputs": [],
      "stateMutability": "nonpayable",
      "type": "function"
    },
    {
      "inputs": [
        {
          "internalType": "bytes4",
          "name": "interfaceId",
          "type": "bytes4"
        }
      ],
      "name": "supportsInterface",
      "outputs": [
        {
          "internalType": "bool",
          "name": "",
          "type": "bool"
        }
      ],
      "stateMutability": "view",
      "type": "function"
    },
    {
      "inputs": [],
      "name": "symbol",
      "outputs": [
        {
          "internalType": "string",
          "name": "",
          "type": "string"
        }
      ],
      "stateMutability": "view",
      "type": "function"
    },
    {
      "inputs": [
        {
          "internalType": "uint256",
          "name": "tokenId",
          "type": "uint256"
        }
      ],
      "name": "tokenURI",
      "outputs": [
        {
          "internalType": "string",
          "name": "",
          "type": "string"
        }
      ],
      "stateMutability": "view",
      "type": "function"
    },
    {
      "inputs": [
        {
          "internalType": "address",
          "name": "from",
          "type": "address"
        },
        {
          "internalType": "address",
          "name": "to",
          "type": "address"
        },
        {
          "internalType": "uint256",
          "name": "tokenId",
          "type": "uint256"
        }
      ],
      "name": "transferFrom",
      "outputs": [],
      "stateMutability": "nonpayable",
      "type": "function"
    }
  ],
  "bytecode": "0x608060405260326008553480156200001657600080fd5b506040518060400160405280600981526020017f5371756172654e465400000000000000000000000000000000000000000000008152506040518060400160405280600681526020017f5351554152450000000000000000000000000000000000000000000000000000815250816000908162000094919062000424565b508060019081620000a6919062000424565b505050620000d86040518060600160405280602b8152602001620033b4602b9139620000de60201b62000b721760201c565b620005be565b6200017e81604051602401620000f591906200059a565b6040516020818303038152906040527f41304fac000000000000000000000000000000000000000000000000000000007bffffffffffffffffffffffffffffffffffffffffffffffffffffffff19166020820180517bffffffffffffffffffffffffffffffffffffffffffffffffffffffff83818316178352505050506200018160201b60201c565b50565b60008151905060006a636f6e736f6c652e6c6f679050602083016000808483855afa5050505050565b600081519050919050565b7f4e487b7100000000000000000000000000000000000000000000000000000000600052604160045260246000fd5b7f4e487b7100000000000000000000000000000000000000000000000000000000600052602260045260246000fd5b600060028204905060018216806200022c57607f821691505b602082108103620002425762000241620001e4565b5b50919050565b60008190508160005260206000209050919050565b60006020601f8301049050919050565b600082821b905092915050565b600060088302620002ac7fffffffffffffffffffffffffffffffffffffffffffffffffffffffffffffffff826200026d565b620002b886836200026d565b95508019841693508086168417925050509392505050565b6000819050919050565b6000819050919050565b600062000305620002ff620002f984620002d0565b620002da565b620002d0565b9050919050565b6000819050919050565b6200032183620002e4565b6200033962000330826200030c565b8484546200027a565b825550505050565b600090565b6200035062000341565b6200035d81848462000316565b505050565b5b8181101562000385576200037960008262000346565b60018101905062000363565b5050565b601f821115620003d4576200039e8162000248565b620003a9846200025d565b81016020851015620003b9578190505b620003d1620003c8856200025d565b83018262000362565b50505b505050565b600082821c905092915050565b6000620003f960001984600802620003d9565b1980831691505092915050565b6000620004148383620003e6565b9150826002028217905092915050565b6200042f82620001aa565b67ffffffffffffffff8111156200044b576200044a620001b5565b5b62000457825462000213565b6200046482828562000389565b600060209050601f8311600181146200049c576000841562000487578287015190505b62000493858262000406565b86555062000503565b601f198416620004ac8662000248565b60005b82811015620004d657848901518255600182019150602085019450602081019050620004af565b86831015620004f65784890151620004f2601f891682620003e6565b8355505b6001600288020188555050505b505050505050565b600082825260208201905092915050565b60005b838110156200053c5780820151818401526020810190506200051f565b60008484015250505050565b6000601f19601f8301169050919050565b60006200056682620001aa565b6200057281856200050b565b9350620005848185602086016200051c565b6200058f8162000548565b840191505092915050565b60006020820190508181036000830152620005b6818462000559565b905092915050565b612de680620005ce6000396000f3fe608060405234801561001057600080fd5b50600436106100f55760003560e01c806342842e0e11610097578063a22cb46511610066578063a22cb46514610284578063b88d4fde146102a0578063c87b56dd146102bc578063e985e9c5146102ec576100f5565b806342842e0e146101ea5780636352211e1461020657806370a082311461023657806395d89b4114610266576100f5565b806306fdde03116100d357806306fdde0314610164578063081812fc14610182578063095ea7b3146101b257806323b872dd146101ce576100f5565b806301ffc9a7146100fa5780630476cd801461012a5780630604759014610146575b600080fd5b610114600480360381019061010f9190611a5a565b61031c565b6040516101219190611aa2565b60405180910390f35b610144600480360381019061013f9190611c03565b6103fe565b005b61014e6104d5565b60405161015b9190611c65565b60405180910390f35b61016c6104eb565b6040516101799190611cff565b60405180910390f35b61019c60048036038101906101979190611d4d565b61057d565b6040516101a99190611dbb565b60405180910390f35b6101cc60048036038101906101c79190611e02565b6105c3565b005b6101e860048036038101906101e39190611e42565b6106da565b005b61020460048036038101906101ff9190611e42565b61073a565b005b610220600480360381019061021b9190611d4d565b61075a565b60405161022d9190611dbb565b60405180910390f35b610250600480360381019061024b9190611e95565b61080b565b60405161025d9190611c65565b60405180910390f35b61026e6108c2565b60405161027b9190611cff565b60405180910390f35b61029e60048036038101906102999190611eee565b610954565b005b6102ba60048036038101906102b59190611fcf565b61096a565b005b6102d660048036038101906102d19190611d4d565b6109cc565b6040516102e39190611cff565b60405180910390f35b61030660048036038101906103019190612052565b610ade565b6040516103139190611aa2565b60405180910390f35b60007f80ac58cd000000000000000000000000000000000000000000000000000000007bffffffffffffffffffffffffffffffffffffffffffffffffffffffff1916827bffffffffffffffffffffffffffffffffffffffffffffffffffffffff191614806103e757507f5b5e139f000000000000000000000000000000000000000000000000000000007bffffffffffffffffffffffffffffffffffffffffffffffffffffffff1916827bffffffffffffffffffffffffffffffffffffffffffffffffffffffff1916145b806103f757506103f682610c0b565b5b9050919050565b6008546104096104d5565b10610449576040517f08c379a000000000000000000000000000000000000000000000000000000000815260040161044090612104565b60405180910390fd5b60006104556007610c75565b90506104613382610c83565b61046b8183610ca1565b61048e604051806060016040528060258152602001612d8c602591398233610d0e565b6104986007610dad565b7febb98688741ffa4c7589bf325de30cf7becb63de567842e1ccdb6cb949fdc82c33826040516104c9929190612124565b60405180910390a15050565b6000806104e26007610c75565b90508091505090565b6060600080546104fa9061217c565b80601f01602080910402602001604051908101604052809291908181526020018280546105269061217c565b80156105735780601f1061054857610100808354040283529160200191610573565b820191906000526020600020905b81548152906001019060200180831161055657829003601f168201915b5050505050905090565b600061058882610dc3565b6004600083815260200190815260200160002060009054906101000a900473ffffffffffffffffffffffffffffffffffffffff169050919050565b60006105ce8261075a565b90508073ffffffffffffffffffffffffffffffffffffffff168373ffffffffffffffffffffffffffffffffffffffff160361063e576040517f08c379a00000000000000000000000000000000000000000000000000000000081526004016106359061221f565b60405180910390fd5b8073ffffffffffffffffffffffffffffffffffffffff1661065d610e0e565b73ffffffffffffffffffffffffffffffffffffffff16148061068c575061068b81610686610e0e565b610ade565b5b6106cb576040517f08c379a00000000000000000000000000000000000000000000000000000000081526004016106c2906122b1565b60405180910390fd5b6106d58383610e16565b505050565b6106eb6106e5610e0e565b82610ecf565b61072a576040517f08c379a000000000000000000000000000000000000000000000000000000000815260040161072190612343565b60405180910390fd5b610735838383610f64565b505050565b6107558383836040518060200160405280600081525061096a565b505050565b6000806002600084815260200190815260200160002060009054906101000a900473ffffffffffffffffffffffffffffffffffffffff169050600073ffffffffffffffffffffffffffffffffffffffff168173ffffffffffffffffffffffffffffffffffffffff1603610802576040517f08c379a00000000000000000000000000000000000000000000000000000000081526004016107f9906123af565b60405180910390fd5b80915050919050565b60008073ffffffffffffffffffffffffffffffffffffffff168273ffffffffffffffffffffffffffffffffffffffff160361087b576040517f08c379a000000000000000000000000000000000000000000000000000000000815260040161087290612441565b60405180910390fd5b600360008373ffffffffffffffffffffffffffffffffffffffff1673ffffffffffffffffffffffffffffffffffffffff168152602001908152602001600020549050919050565b6060600180546108d19061217c565b80601f01602080910402602001604051908101604052809291908181526020018280546108fd9061217c565b801561094a5780601f1061091f5761010080835404028352916020019161094a565b820191906000526020600020905b81548152906001019060200180831161092d57829003601f168201915b5050505050905090565b61096661095f610e0e565b83836111ca565b5050565b61097b610975610e0e565b83610ecf565b6109ba576040517f08c379a00000000000000000000000000000000000000000000000000000000081526004016109b190612343565b60405180910390fd5b6109c684848484611336565b50505050565b60606109d782610dc3565b60006006600084815260200190815260200160002080546109f79061217c565b80601f0160208091040260200160405190810160405280929190818152602001828054610a239061217c565b8015610a705780601f10610a4557610100808354040283529160200191610a70565b820191906000526020600020905b815481529060010190602001808311610a5357829003601f168201915b505050505090506000610a81611392565b90506000815103610a96578192505050610ad9565b600082511115610acb578082604051602001610ab392919061249d565b60405160208183030381529060405292505050610ad9565b610ad4846113a9565b925050505b919050565b6000600560008473ffffffffffffffffffffffffffffffffffffffff1673ffffffffffffffffffffffffffffffffffffffff16815260200190815260200160002060008373ffffffffffffffffffffffffffffffffffffffff1673ffffffffffffffffffffffffffffffffffffffff16815260200190815260200160002060009054906101000a900460ff16905092915050565b610c0881604051602401610b869190611cff565b6040516020818303038152906040527f41304fac000000000000000000000000000000000000000000000000000000007bffffffffffffffffffffffffffffffffffffffffffffffffffffffff19166020820180517bffffffffffffffffffffffffffffffffffffffffffffffffffffffff8381831617835250505050611411565b50565b60007f01ffc9a7000000000000000000000000000000000000000000000000000000007bffffffffffffffffffffffffffffffffffffffffffffffffffffffff1916827bffffffffffffffffffffffffffffffffffffffffffffffffffffffff1916149050919050565b600081600001549050919050565b610c9d82826040518060200160405280600081525061143a565b5050565b610caa82611495565b610ce9576040517f08c379a0000000000000000000000000000000000000000000000000000000008152600401610ce090612533565b60405180910390fd5b80600660008481526020019081526020016000209081610d0991906126ff565b505050565b610da8838383604051602401610d26939291906127d1565b6040516020818303038152906040527f1c7ec448000000000000000000000000000000000000000000000000000000007bffffffffffffffffffffffffffffffffffffffffffffffffffffffff19166020820180517bffffffffffffffffffffffffffffffffffffffffffffffffffffffff8381831617835250505050611411565b505050565b6001816000016000828254019250508190555050565b610dcc81611495565b610e0b576040517f08c379a0000000000000000000000000000000000000000000000000000000008152600401610e02906123af565b60405180910390fd5b50565b600033905090565b816004600083815260200190815260200160002060006101000a81548173ffffffffffffffffffffffffffffffffffffffff021916908373ffffffffffffffffffffffffffffffffffffffff160217905550808273ffffffffffffffffffffffffffffffffffffffff16610e898361075a565b73ffffffffffffffffffffffffffffffffffffffff167f8c5be1e5ebec7d5bd14f71427d1e84f3dd0314c0f7b2291e5b200ac8c7c3b92560405160405180910390a45050565b600080610edb8361075a565b90508073ffffffffffffffffffffffffffffffffffffffff168473ffffffffffffffffffffffffffffffffffffffff161480610f1d5750610f1c8185610ade565b5b80610f5b57508373ffffffffffffffffffffffffffffffffffffffff16610f438461057d565b73ffffffffffffffffffffffffffffffffffffffff16145b91505092915050565b8273ffffffffffffffffffffffffffffffffffffffff16610f848261075a565b73ffffffffffffffffffffffffffffffffffffffff1614610fda576040517f08c379a0000000000000000000000000000000000000000000000000000000008152600401610fd190612881565b60405180910390fd5b600073ffffffffffffffffffffffffffffffffffffffff168273ffffffffffffffffffffffffffffffffffffffff1603611049576040517f08c379a000000000000000000000000000000000000000000000000000000000815260040161104090612913565b60405180910390fd5b611054838383611501565b61105f600082610e16565b6001600360008573ffffffffffffffffffffffffffffffffffffffff1673ffffffffffffffffffffffffffffffffffffffff16815260200190815260200160002060008282546110af9190612962565b925050819055506001600360008473ffffffffffffffffffffffffffffffffffffffff1673ffffffffffffffffffffffffffffffffffffffff16815260200190815260200160002060008282546111069190612996565b92505081905550816002600083815260200190815260200160002060006101000a81548173ffffffffffffffffffffffffffffffffffffffff021916908373ffffffffffffffffffffffffffffffffffffffff160217905550808273ffffffffffffffffffffffffffffffffffffffff168473ffffffffffffffffffffffffffffffffffffffff167fddf252ad1be2c89b69c2b068fc378daa952ba7f163c4a11628f55a4df523b3ef60405160405180910390a46111c5838383611506565b505050565b8173ffffffffffffffffffffffffffffffffffffffff168373ffffffffffffffffffffffffffffffffffffffff1603611238576040517f08c379a000000000000000000000000000000000000000000000000000000000815260040161122f90612a16565b60405180910390fd5b80600560008573ffffffffffffffffffffffffffffffffffffffff1673ffffffffffffffffffffffffffffffffffffffff16815260200190815260200160002060008473ffffffffffffffffffffffffffffffffffffffff1673ffffffffffffffffffffffffffffffffffffffff16815260200190815260200160002060006101000a81548160ff0219169083151502179055508173ffffffffffffffffffffffffffffffffffffffff168373ffffffffffffffffffffffffffffffffffffffff167f17307eab39ab6107e8899845ad3d59bd9653f200f220920489ca2b5937696c31836040516113299190611aa2565b60405180910390a3505050565b611341848484610f64565b61134d8484848461150b565b61138c576040517f08c379a000000000000000000000000000000000000000000000000000000000815260040161138390612aa8565b60405180910390fd5b50505050565b606060405180602001604052806000815250905090565b60606113b482610dc3565b60006113be611392565b905060008151116113de5760405180602001604052806000815250611409565b806113e884611692565b6040516020016113f992919061249d565b6040516020818303038152906040525b915050919050565b60008151905060006a636f6e736f6c652e6c6f679050602083016000808483855afa5050505050565b61144483836117f2565b611451600084848461150b565b611490576040517f08c379a000000000000000000000000000000000000000000000000000000000815260040161148790612aa8565b60405180910390fd5b505050565b60008073ffffffffffffffffffffffffffffffffffffffff166002600084815260200190815260200160002060009054906101000a900473ffffffffffffffffffffffffffffffffffffffff1673ffffffffffffffffffffffffffffffffffffffff1614159050919050565b505050565b505050565b600061152c8473ffffffffffffffffffffffffffffffffffffffff166119cb565b15611685578373ffffffffffffffffffffffffffffffffffffffff1663150b7a02611555610e0e565b8786866040518563ffffffff1660e01b81526004016115779493929190612b1d565b6020604051808303816000875af19250505080156115b357506040513d601f19601f820116820180604052508101906115b09190612b7e565b60015b611635573d80600081146115e3576040519150601f19603f3d011682016040523d82523d6000602084013e6115e8565b606091505b50600081510361162d576040517f08c379a000000000000000000000000000000000000000000000000000000000815260040161162490612aa8565b60405180910390fd5b805181602001fd5b63150b7a0260e01b7bffffffffffffffffffffffffffffffffffffffffffffffffffffffff1916817bffffffffffffffffffffffffffffffffffffffffffffffffffffffff19161491505061168a565b600190505b949350505050565b6060600082036116d9576040518060400160405280600181526020017f300000000000000000000000000000000000000000000000000000000000000081525090506117ed565b600082905060005b6000821461170b5780806116f490612bab565b915050600a826117049190612c22565b91506116e1565b60008167ffffffffffffffff81111561172757611726611ad8565b5b6040519080825280601f01601f1916602001820160405280156117595781602001600182028036833780820191505090505b5090505b600085146117e6576001826117729190612962565b9150600a856117819190612c53565b603061178d9190612996565b60f81b8183815181106117a3576117a2612c84565b5b60200101907effffffffffffffffffffffffffffffffffffffffffffffffffffffffffffff1916908160001a905350600a856117df9190612c22565b945061175d565b8093505050505b919050565b600073ffffffffffffffffffffffffffffffffffffffff168273ffffffffffffffffffffffffffffffffffffffff1603611861576040517f08c379a000000000000000000000000000000000000000000000000000000000815260040161185890612cff565b60405180910390fd5b61186a81611495565b156118aa576040517f08c379a00000000000000000000000000000000000000000000000000000000081526004016118a190612d6b565b60405180910390fd5b6118b660008383611501565b6001600360008473ffffffffffffffffffffffffffffffffffffffff1673ffffffffffffffffffffffffffffffffffffffff16815260200190815260200160002060008282546119069190612996565b92505081905550816002600083815260200190815260200160002060006101000a81548173ffffffffffffffffffffffffffffffffffffffff021916908373ffffffffffffffffffffffffffffffffffffffff160217905550808273ffffffffffffffffffffffffffffffffffffffff16600073ffffffffffffffffffffffffffffffffffffffff167fddf252ad1be2c89b69c2b068fc378daa952ba7f163c4a11628f55a4df523b3ef60405160405180910390a46119c760008383611506565b5050565b6000808273ffffffffffffffffffffffffffffffffffffffff163b119050919050565b6000604051905090565b600080fd5b600080fd5b60007fffffffff0000000000000000000000000000000000000000000000000000000082169050919050565b611a3781611a02565b8114611a4257600080fd5b50565b600081359050611a5481611a2e565b92915050565b600060208284031215611a7057611a6f6119f8565b5b6000611a7e84828501611a45565b91505092915050565b60008115159050919050565b611a9c81611a87565b82525050565b6000602082019050611ab76000830184611a93565b92915050565b600080fd5b600080fd5b6000601f19601f8301169050919050565b7f4e487b7100000000000000000000000000000000000000000000000000000000600052604160045260246000fd5b611b1082611ac7565b810181811067ffffffffffffffff82111715611b2f57611b2e611ad8565b5b80604052505050565b6000611b426119ee565b9050611b4e8282611b07565b919050565b600067ffffffffffffffff821115611b6e57611b6d611ad8565b5b611b7782611ac7565b9050602081019050919050565b82818337600083830152505050565b6000611ba6611ba184611b53565b611b38565b905082815260208101848484011115611bc257611bc1611ac2565b5b611bcd848285611b84565b509392505050565b600082601f830112611bea57611be9611abd565b5b8135611bfa848260208601611b93565b91505092915050565b600060208284031215611c1957611c186119f8565b5b600082013567ffffffffffffffff811115611c3757611c366119fd565b5b611c4384828501611bd5565b91505092915050565b6000819050919050565b611c5f81611c4c565b82525050565b6000602082019050611c7a6000830184611c56565b92915050565b600081519050919050565b600082825260208201905092915050565b60005b83811015611cba578082015181840152602081019050611c9f565b60008484015250505050565b6000611cd182611c80565b611cdb8185611c8b565b9350611ceb818560208601611c9c565b611cf481611ac7565b840191505092915050565b60006020820190508181036000830152611d198184611cc6565b905092915050565b611d2a81611c4c565b8114611d3557600080fd5b50565b600081359050611d4781611d21565b92915050565b600060208284031215611d6357611d626119f8565b5b6000611d7184828501611d38565b91505092915050565b600073ffffffffffffffffffffffffffffffffffffffff82169050919050565b6000611da582611d7a565b9050919050565b611db581611d9a565b82525050565b6000602082019050611dd06000830184611dac565b92915050565b611ddf81611d9a565b8114611dea57600080fd5b50565b600081359050611dfc81611dd6565b92915050565b60008060408385031215611e1957611e186119f8565b5b6000611e2785828601611ded565b9250506020611e3885828601611d38565b9150509250929050565b600080600060608486031215611e5b57611e5a6119f8565b5b6000611e6986828701611ded565b9350506020611e7a86828701611ded565b9250506040611e8b86828701611d38565b9150509250925092565b600060208284031215611eab57611eaa6119f8565b5b6000611eb984828501611ded565b91505092915050565b611ecb81611a87565b8114611ed657600080fd5b50565b600081359050611ee881611ec2565b92915050565b60008060408385031215611f0557611f046119f8565b5b6000611f1385828601611ded565b9250506020611f2485828601611ed9565b9150509250929050565b600067ffffffffffffffff821115611f4957611f48611ad8565b5b611f5282611ac7565b9050602081019050919050565b6000611f72611f6d84611f2e565b611b38565b905082815260208101848484011115611f8e57611f8d611ac2565b5b611f99848285611b84565b509392505050565b600082601f830112611fb657611fb5611abd565b5b8135611fc6848260208601611f5f565b91505092915050565b60008060008060808587031215611fe957611fe86119f8565b5b6000611ff787828801611ded565b945050602061200887828801611ded565b935050604061201987828801611d38565b925050606085013567ffffffffffffffff81111561203a576120396119fd565b5b61204687828801611fa1565b91505092959194509250565b60008060408385031215612069576120686119f8565b5b600061207785828601611ded565b925050602061208885828601611ded565b9150509250929050565b7f4a757374203530204e4654732063616e206265206d696e746564206f6e20746860008201527f697320636f6e7472616374000000000000000000000000000000000000000000602082015250565b60006120ee602b83611c8b565b91506120f982612092565b604082019050919050565b6000602082019050818103600083015261211d816120e1565b9050919050565b60006040820190506121396000830185611dac565b6121466020830184611c56565b9392505050565b7f4e487b7100000000000000000000000000000000000000000000000000000000600052602260045260246000fd5b6000600282049050600182168061219457607f821691505b6020821081036121a7576121a661214d565b5b50919050565b7f4552433732313a20617070726f76616c20746f2063757272656e74206f776e6560008201527f7200000000000000000000000000000000000000000000000000000000000000602082015250565b6000612209602183611c8b565b9150612214826121ad565b604082019050919050565b60006020820190508181036000830152612238816121fc565b9050919050565b7f4552433732313a20617070726f76652063616c6c6572206973206e6f7420746f60008201527f6b656e206f776e6572206e6f7220617070726f76656420666f7220616c6c0000602082015250565b600061229b603e83611c8b565b91506122a68261223f565b604082019050919050565b600060208201905081810360008301526122ca8161228e565b9050919050565b7f4552433732313a2063616c6c6572206973206e6f7420746f6b656e206f776e6560008201527f72206e6f7220617070726f766564000000000000000000000000000000000000602082015250565b600061232d602e83611c8b565b9150612338826122d1565b604082019050919050565b6000602082019050818103600083015261235c81612320565b9050919050565b7f4552433732313a20696e76616c696420746f6b656e2049440000000000000000600082015250565b6000612399601883611c8b565b91506123a482612363565b602082019050919050565b600060208201905081810360008301526123c88161238c565b9050919050565b7f4552433732313a2061646472657373207a65726f206973206e6f74206120766160008201527f6c6964206f776e65720000000000000000000000000000000000000000000000602082015250565b600061242b602983611c8b565b9150612436826123cf565b604082019050919050565b6000602082019050818103600083015261245a8161241e565b9050919050565b600081905092915050565b600061247782611c80565b6124818185612461565b9350612491818560208601611c9c565b80840191505092915050565b60006124a9828561246c565b91506124b5828461246c565b91508190509392505050565b7f45524337323155524953746f726167653a2055524920736574206f66206e6f6e60008201527f6578697374656e7420746f6b656e000000000000000000000000000000000000602082015250565b600061251d602e83611c8b565b9150612528826124c1565b604082019050919050565b6000602082019050818103600083015261254c81612510565b9050919050565b60008190508160005260206000209050919050565b60006020601f8301049050919050565b600082821b905092915050565b6000600883026125b57fffffffffffffffffffffffffffffffffffffffffffffffffffffffffffffffff82612578565b6125bf8683612578565b95508019841693508086168417925050509392505050565b6000819050919050565b60006125fc6125f76125f284611c4c565b6125d7565b611c4c565b9050919050565b6000819050919050565b612616836125e1565b61262a61262282612603565b848454612585565b825550505050565b600090565b61263f612632565b61264a81848461260d565b505050565b5b8181101561266e57612663600082612637565b600181019050612650565b5050565b601f8211156126b35761268481612553565b61268d84612568565b8101602085101561269c578190505b6126b06126a885612568565b83018261264f565b50505b505050565b600082821c905092915050565b60006126d6600019846008026126b8565b1980831691505092915050565b60006126ef83836126c5565b9150826002028217905092915050565b61270882611c80565b67ffffffffffffffff81111561272157612720611ad8565b5b61272b825461217c565b612736828285612672565b600060209050601f8311600181146127695760008415612757578287015190505b61276185826126e3565b8655506127c9565b601f19841661277786612553565b60005b8281101561279f5784890151825560018201915060208501945060208101905061277a565b868310156127bc57848901516127b8601f8916826126c5565b8355505b6001600288020188555050505b505050505050565b600060608201905081810360008301526127eb8186611cc6565b90506127fa6020830185611c56565b6128076040830184611dac565b949350505050565b7f4552433732313a207472616e736665722066726f6d20696e636f72726563742060008201527f6f776e6572000000000000000000000000000000000000000000000000000000602082015250565b600061286b602583611c8b565b91506128768261280f565b604082019050919050565b6000602082019050818103600083015261289a8161285e565b9050919050565b7f4552433732313a207472616e7366657220746f20746865207a65726f2061646460008201527f7265737300000000000000000000000000000000000000000000000000000000602082015250565b60006128fd602483611c8b565b9150612908826128a1565b604082019050919050565b6000602082019050818103600083015261292c816128f0565b9050919050565b7f4e487b7100000000000000000000000000000000000000000000000000000000600052601160045260246000fd5b600061296d82611c4c565b915061297883611c4c565b92508282039050818111156129905761298f612933565b5b92915050565b60006129a182611c4c565b91506129ac83611c4c565b92508282019050808211156129c4576129c3612933565b5b92915050565b7f4552433732313a20617070726f766520746f2063616c6c657200000000000000600082015250565b6000612a00601983611c8b565b9150612a0b826129ca565b602082019050919050565b60006020820190508181036000830152612a2f816129f3565b9050919050565b7f4552433732313a207472616e7366657220746f206e6f6e20455243373231526560008201527f63656976657220696d706c656d656e7465720000000000000000000000000000602082015250565b6000612a92603283611c8b565b9150612a9d82612a36565b604082019050919050565b60006020820190508181036000830152612ac181612a85565b9050919050565b600081519050919050565b600082825260208201905092915050565b6000612aef82612ac8565b612af98185612ad3565b9350612b09818560208601611c9c565b612b1281611ac7565b840191505092915050565b6000608082019050612b326000830187611dac565b612b3f6020830186611dac565b612b4c6040830185611c56565b8181036060830152612b5e8184612ae4565b905095945050505050565b600081519050612b7881611a2e565b92915050565b600060208284031215612b9457612b936119f8565b5b6000612ba284828501612b69565b91505092915050565b6000612bb682611c4c565b91507fffffffffffffffffffffffffffffffffffffffffffffffffffffffffffffffff8203612be857612be7612933565b5b600182019050919050565b7f4e487b7100000000000000000000000000000000000000000000000000000000600052601260045260246000fd5b6000612c2d82611c4c565b9150612c3883611c4c565b925082612c4857612c47612bf3565b5b828204905092915050565b6000612c5e82611c4c565b9150612c6983611c4c565b925082612c7957612c78612bf3565b5b828206905092915050565b7f4e487b7100000000000000000000000000000000000000000000000000000000600052603260045260246000fd5b7f4552433732313a206d696e7420746f20746865207a65726f2061646472657373600082015250565b6000612ce9602083611c8b565b9150612cf482612cb3565b602082019050919050565b60006020820190508181036000830152612d1881612cdc565b9050919050565b7f4552433732313a20746f6b656e20616c7265616479206d696e74656400000000600082015250565b6000612d55601c83611c8b565b9150612d6082612d1f565b602082019050919050565b60006020820190508181036000830152612d8481612d48565b905091905056fe416e204e465420772f20494420257320686173206265656e206d696e74656420746f202573a2646970667358221220914a32c34ebf1ccc4b9b21f9b5a30fe223fca90bd37003c76a62e6b6ec818a2464736f6c6343000811003349276d206578636974656420746f20676574206d79204e465420636f6e747261637420776f726b696e6721",
  "linkReferences": {},
  "deployedLinkReferences": {}
}